:10000000B0B1B2B3B4B5B6B7B8B9BABBBCBDBEBF78
:10001000B0B1B2B3B4B5B6B7B8B9BABBBCBDBEBF68
:10002000B0B1B2B3B4B5B6B7B8B9BABBBCBDBEBF58
:10003000B0B1B2B3B4B5B6B7B8B9BABBBCBDBEBF48
:10004000B0B1B2B3B4B5B6B7B8B9BABBBCBDBEBF38
:10005000B0B1B2B3B4B5B6B7B8B9BABBBCBDBEBF28
:10006000B0B1B2B3B4B5B6B7B8B9BABBBCBDBEBF18
:10007000B0B1B2B3B4B5B6B7B8B9BABBBCBDBEBF08
:10008000B0B1B2B3B4B5B6B7B8B9BABBBCBDBEBFF8
:10009000B0B1B2B3B4B5B6B7B8B9BABBBCBDBEBFE8
:1000A000B0B1B2B3B4B5B6B7B8B9BABBBCBDBEBFD8
:1000B000B0B1B2B3B4B5B6B7B8B9BABBBCBDBEBFC8
:1000C000B0B1B2B3B4B5B6B7B8B9BABBBCBDBEBFB8
:1000D000B0B1B2B3B4B5B6B7B8B9BABBBCBDBEBFA8
:1000E000B0B1B2B3B4B5B6B7B8B9BABBBCBDBEBF98
:1000F000B0B1B2B3B4B5B6B7B8B9BABBBCBDBEBF88
:10010000B0B1B2B3B4B5B6B7B8B9BABBBCBDBEBF77
:10011000B0B1B2B3B4B5B6B7B8B9BABBBCBDBEBF67
:10012000B0B1B2B3B4B5B6B7B8B9BABBBCBDBEBF57
:10013000B0B1B2B3B4B5B6B7B8B9BABBBCBDBEBF47
:10014000B0B1B2B3B4B5B6B7B8B9BABBBCBDBEBF37
:10015000B0B1B2B3B4B5B6B7B8B9BABBBCBDBEBF27
:10016000B0B1B2B3B4B5B6B7B8B9BABBBCBDBEBF17
:10017000B0B1B2B3B4B5B6B7B8B9BABBBCBDBEBF07
:10018000B0B1B2B3B4B5B6B7B8B9BABBBCBDBEBFF7
:10019000B0B1B2B3B4B5B6B7B8B9BABBBCBDBEBFE7
:1001A000B0B1B2B3B4B5B6B7B8B9BABBBCBDBEBFD7
:1001B000B0B1B2B3B4B5B6B7B8B9BABBBCBDBEBFC7
:1001C000B0B1B2B3B4B5B6B7B8B9BABBBCBDBEBFB7
:1001D000B0B1B2B3B4B5B6B7B8B9BABBBCBDBEBFA7
:1001E000B0B1B2B3B4B5B6B7B8B9BABBBCBDBEBF97
:1001F000B0B1B2B3B4B5B6B7B8B9BABBBCBDBEBF87
:10020000B0B1B2B3B4B5B6B7B8B9BABBBCBDBEBF76
:10021000B0B1B2B3B4B5B6B7B8B9BABBBCBDBEBF66
:10022000B0B1B2B3B4B5B6B7B8B9BABBBCBDBEBF56
:10023000B0B1B2B3B4B5B6B7B8B9BABBBCBDBEBF46
:10024000B0B1B2B3B4B5B6B7B8B9BABBBCBDBEBF36
:10025000B0B1B2B3B4B5B6B7B8B9BABBBCBDBEBF26
:10026000B0B1B2B3B4B5B6B7B8B9BABBBCBDBEBF16
:10027000B0B1B2B3B4B5B6B7B8B9BABBBCBDBEBF06
:10028000B0B1B2B3B4B5B6B7B8B9BABBBCBDBEBFF6
:10029000B0B1B2B3B4B5B6B7B8B9BABBBCBDBEBFE6
:1002A000B0B1B2B3B4B5B6B7B8B9BABBBCBDBEBFD6
:1002B000B0B1B2B3B4B5B6B7B8B9BABBBCBDBEBFC6
:1002C000B0B1B2B3B4B5B6B7B8B9BABBBCBDBEBFB6
:1002D000B0B1B2B3B4B5B6B7B8B9BABBBCBDBEBFA6
:1002E000B0B1B2B3B4B5B6B7B8B9BABBBCBDBEBF96
:1002F000B0B1B2B3B4B5B6B7B8B9BABBBCBDBEBF86
:10030000B0B1B2B3B4B5B6B7B8B9BABBBCBDBEBF75
:10031000B0B1B2B3B4B5B6B7B8B9BABBBCBDBEBF65
:10032000B0B1B2B3B4B5B6B7B8B9BABBBCBDBEBF55
:10033000B0B1B2B3B4B5B6B7B8B9BABBBCBDBEBF45
:10034000B0B1B2B3B4B5B6B7B8B9BABBBCBDBEBF35
:10035000B0B1B2B3B4B5B6B7B8B9BABBBCBDBEBF25
:10036000B0B1B2B3B4B5B6B7B8B9BABBBCBDBEBF15
:10037000B0B1B2B3B4B5B6B7B8B9BABBBCBDBEBF05
:10038000B0B1B2B3B4B5B6B7B8B9BABBBCBDBEBFF5
:10039000B0B1B2B3B4B5B6B7B8B9BABBBCBDBEBFE5
:1003A000B0B1B2B3B4B5B6B7B8B9BABBBCBDBEBFD5
:1003B000B0B1B2B3B4B5B6B7B8B9BABBBCBDBEBFC5
:1003C000B0B1B2B3B4B5B6B7B8B9BABBBCBDBEBFB5
:1003D000B0B1B2B3B4B5B6B7B8B9BABBBCBDBEBFA5
:1003E000B0B1B2B3B4B5B6B7B8B9BABBBCBDBEBF95
:1003F000B0B1B2B3B4B5B6B7B8B9BABBBCBDBEBF85
:10040000B0B1B2B3B4B5B6B7B8B9BABBBCBDBEBF74
:10041000B0B1B2B3B4B5B6B7B8B9BABBBCBDBEBF64
:10042000B0B1B2B3B4B5B6B7B8B9BABBBCBDBEBF54
:10043000B0B1B2B3B4B5B6B7B8B9BABBBCBDBEBF44
:10044000B0B1B2B3B4B5B6B7B8B9BABBBCBDBEBF34
:10045000B0B1B2B3B4B5B6B7B8B9BABBBCBDBEBF24
:10046000B0B1B2B3B4B5B6B7B8B9BABBBCBDBEBF14
:10047000B0B1B2B3B4B5B6B7B8B9BABBBCBDBEBF04
:10048000B0B1B2B3B4B5B6B7B8B9BABBBCBDBEBFF4
:10049000B0B1B2B3B4B5B6B7B8B9BABBBCBDBEBFE4
:1004A000B0B1B2B3B4B5B6B7B8B9BABBBCBDBEBFD4
:1004B000B0B1B2B3B4B5B6B7B8B9BABBBCBDBEBFC4
:1004C000B0B1B2B3B4B5B6B7B8B9BABBBCBDBEBFB4
:1004D000B0B1B2B3B4B5B6B7B8B9BABBBCBDBEBFA4
:1004E000B0B1B2B3B4B5B6B7B8B9BABBBCBDBEBF94
:1004F000B0B1B2B3B4B5B6B7B8B9BABBBCBDBEBF84
:10050000B0B1B2B3B4B5B6B7B8B9BABBBCBDBEBF73
:10051000B0B1B2B3B4B5B6B7B8B9BABBBCBDBEBF63
:10052000B0B1B2B3B4B5B6B7B8B9BABBBCBDBEBF53
:10053000B0B1B2B3B4B5B6B7B8B9BABBBCBDBEBF43
:10054000B0B1B2B3B4B5B6B7B8B9BABBBCBDBEBF33
:10055000B0B1B2B3B4B5B6B7B8B9BABBBCBDBEBF23
:10056000B0B1B2B3B4B5B6B7B8B9BABBBCBDBEBF13
:10057000B0B1B2B3B4B5B6B7B8B9BABBBCBDBEBF03
:10058000B0B1B2B3B4B5B6B7B8B9BABBBCBDBEBFF3
:10059000B0B1B2B3B4B5B6B7B8B9BABBBCBDBEBFE3
:1005A000B0B1B2B3B4B5B6B7B8B9BABBBCBDBEBFD3
:1005B000B0B1B2B3B4B5B6B7B8B9BABBBCBDBEBFC3
:1005C000B0B1B2B3B4B5B6B7B8B9BABBBCBDBEBFB3
:1005D000B0B1B2B3B4B5B6B7B8B9BABBBCBDBEBFA3
:1005E000B0B1B2B3B4B5B6B7B8B9BABBBCBDBEBF93
:1005F000B0B1B2B3B4B5B6B7B8B9BABBBCBDBEBF83
:10060000B0B1B2B3B4B5B6B7B8B9BABBBCBDBEBF72
:10061000B0B1B2B3B4B5B6B7B8B9BABBBCBDBEBF62
:10062000B0B1B2B3B4B5B6B7B8B9BABBBCBDBEBF52
:10063000B0B1B2B3B4B5B6B7B8B9BABBBCBDBEBF42
:10064000B0B1B2B3B4B5B6B7B8B9BABBBCBDBEBF32
:10065000B0B1B2B3B4B5B6B7B8B9BABBBCBDBEBF22
:10066000B0B1B2B3B4B5B6B7B8B9BABBBCBDBEBF12
:10067000B0B1B2B3B4B5B6B7B8B9BABBBCBDBEBF02
:10068000B0B1B2B3B4B5B6B7B8B9BABBBCBDBEBFF2
:10069000B0B1B2B3B4B5B6B7B8B9BABBBCBDBEBFE2
:1006A000B0B1B2B3B4B5B6B7B8B9BABBBCBDBEBFD2
:1006B000B0B1B2B3B4B5B6B7B8B9BABBBCBDBEBFC2
:1006C000B0B1B2B3B4B5B6B7B8B9BABBBCBDBEBFB2
:1006D000B0B1B2B3B4B5B6B7B8B9BABBBCBDBEBFA2
:1006E000B0B1B2B3B4B5B6B7B8B9BABBBCBDBEBF92
:1006F000B0B1B2B3B4B5B6B7B8B9BABBBCBDBEBF82
:10070000B0B1B2B3B4B5B6B7B8B9BABBBCBDBEBF71
:10071000B0B1B2B3B4B5B6B7B8B9BABBBCBDBEBF61
:10072000B0B1B2B3B4B5B6B7B8B9BABBBCBDBEBF51
:10073000B0B1B2B3B4B5B6B7B8B9BABBBCBDBEBF41
:10074000B0B1B2B3B4B5B6B7B8B9BABBBCBDBEBF31
:10075000B0B1B2B3B4B5B6B7B8B9BABBBCBDBEBF21
:10076000B0B1B2B3B4B5B6B7B8B9BABBBCBDBEBF11
:10077000B0B1B2B3B4B5B6B7B8B9BABBBCBDBEBF01
:10078000B0B1B2B3B4B5B6B7B8B9BABBBCBDBEBFF1
:10079000B0B1B2B3B4B5B6B7B8B9BABBBCBDBEBFE1
:1007A000B0B1B2B3B4B5B6B7B8B9BABBBCBDBEBFD1
:1007B000B0B1B2B3B4B5B6B7B8B9BABBBCBDBEBFC1
:1007C000B0B1B2B3B4B5B6B7B8B9BABBBCBDBEBFB1
:1007D000B0B1B2B3B4B5B6B7B8B9BABBBCBDBEBFA1
:1007E000B0B1B2B3B4B5B6B7B8B9BABBBCBDBEBF91
:1007F000B0B1B2B3B4B5B6B7B8B9BABBBCBDBEBF81
:10080000B0B1B2B3B4B5B6B7B8B9BABBBCBDBEBF70
:10081000B0B1B2B3B4B5B6B7B8B9BABBBCBDBEBF60
:10082000B0B1B2B3B4B5B6B7B8B9BABBBCBDBEBF50
:10083000B0B1B2B3B4B5B6B7B8B9BABBBCBDBEBF40
:10084000B0B1B2B3B4B5B6B7B8B9BABBBCBDBEBF30
:10085000B0B1B2B3B4B5B6B7B8B9BABBBCBDBEBF20
:10086000B0B1B2B3B4B5B6B7B8B9BABBBCBDBEBF10
:10087000B0B1B2B3B4B5B6B7B8B9BABBBCBDBEBF00
:10088000B0B1B2B3B4B5B6B7B8B9BABBBCBDBEBFF0
:10089000B0B1B2B3B4B5B6B7B8B9BABBBCBDBEBFE0
:1008A000B0B1B2B3B4B5B6B7B8B9BABBBCBDBEBFD0
:1008B000B0B1B2B3B4B5B6B7B8B9BABBBCBDBEBFC0
:1008C000B0B1B2B3B4B5B6B7B8B9BABBBCBDBEBFB0
:1008D000B0B1B2B3B4B5B6B7B8B9BABBBCBDBEBFA0
:1008E000B0B1B2B3B4B5B6B7B8B9BABBBCBDBEBF90
:1008F000B0B1B2B3B4B5B6B7B8B9BABBBCBDBEBF80
:10090000B0B1B2B3B4B5B6B7B8B9BABBBCBDBEBF6F
:10091000B0B1B2B3B4B5B6B7B8B9BABBBCBDBEBF5F
:10092000B0B1B2B3B4B5B6B7B8B9BABBBCBDBEBF4F
:10093000B0B1B2B3B4B5B6B7B8B9BABBBCBDBEBF3F
:10094000B0B1B2B3B4B5B6B7B8B9BABBBCBDBEBF2F
:10095000B0B1B2B3B4B5B6B7B8B9BABBBCBDBEBF1F
:10096000B0B1B2B3B4B5B6B7B8B9BABBBCBDBEBF0F
:10097000B0B1B2B3B4B5B6B7B8B9BABBBCBDBEBFFF
:10098000B0B1B2B3B4B5B6B7B8B9BABBBCBDBEBFEF
:10099000B0B1B2B3B4B5B6B7B8B9BABBBCBDBEBFDF
:1009A000B0B1B2B3B4B5B6B7B8B9BABBBCBDBEBFCF
:1009B000B0B1B2B3B4B5B6B7B8B9BABBBCBDBEBFBF
:1009C000B0B1B2B3B4B5B6B7B8B9BABBBCBDBEBFAF
:1009D000B0B1B2B3B4B5B6B7B8B9BABBBCBDBEBF9F
:1009E000B0B1B2B3B4B5B6B7B8B9BABBBCBDBEBF8F
:1009F000B0B1B2B3B4B5B6B7B8B9BABBBCBDBEBF7F
:100A0000B0B1B2B3B4B5B6B7B8B9BABBBCBDBEBF6E
:100A1000B0B1B2B3B4B5B6B7B8B9BABBBCBDBEBF5E
:100A2000B0B1B2B3B4B5B6B7B8B9BABBBCBDBEBF4E
:100A3000B0B1B2B3B4B5B6B7B8B9BABBBCBDBEBF3E
:100A4000B0B1B2B3B4B5B6B7B8B9BABBBCBDBEBF2E
:100A5000B0B1B2B3B4B5B6B7B8B9BABBBCBDBEBF1E
:100A6000B0B1B2B3B4B5B6B7B8B9BABBBCBDBEBF0E
:100A7000B0B1B2B3B4B5B6B7B8B9BABBBCBDBEBFFE
:100A8000B0B1B2B3B4B5B6B7B8B9BABBBCBDBEBFEE
:100A9000B0B1B2B3B4B5B6B7B8B9BABBBCBDBEBFDE
:100AA000B0B1B2B3B4B5B6B7B8B9BABBBCBDBEBFCE
:100AB000B0B1B2B3B4B5B6B7B8B9BABBBCBDBEBFBE
:100AC000B0B1B2B3B4B5B6B7B8B9BABBBCBDBEBFAE
:100AD000B0B1B2B3B4B5B6B7B8B9BABBBCBDBEBF9E
:100AE000B0B1B2B3B4B5B6B7B8B9BABBBCBDBEBF8E
:100AF000B0B1B2B3B4B5B6B7B8B9BABBBCBDBEBF7E
:100B0000B0B1B2B3B4B5B6B7B8B9BABBBCBDBEBF6D
:100B1000B0B1B2B3B4B5B6B7B8B9BABBBCBDBEBF5D
:100B2000B0B1B2B3B4B5B6B7B8B9BABBBCBDBEBF4D
:100B3000B0B1B2B3B4B5B6B7B8B9BABBBCBDBEBF3D
:100B4000B0B1B2B3B4B5B6B7B8B9BABBBCBDBEBF2D
:100B5000B0B1B2B3B4B5B6B7B8B9BABBBCBDBEBF1D
:100B6000B0B1B2B3B4B5B6B7B8B9BABBBCBDBEBF0D
:100B7000B0B1B2B3B4B5B6B7B8B9BABBBCBDBEBFFD
:100B8000B0B1B2B3B4B5B6B7B8B9BABBBCBDBEBFED
:100B9000B0B1B2B3B4B5B6B7B8B9BABBBCBDBEBFDD
:100BA000B0B1B2B3B4B5B6B7B8B9BABBBCBDBEBFCD
:100BB000B0B1B2B3B4B5B6B7B8B9BABBBCBDBEBFBD
:100BC000B0B1B2B3B4B5B6B7B8B9BABBBCBDBEBFAD
:100BD000B0B1B2B3B4B5B6B7B8B9BABBBCBDBEBF9D
:100BE000B0B1B2B3B4B5B6B7B8B9BABBBCBDBEBF8D
:100BF000B0B1B2B3B4B5B6B7B8B9BABBBCBDBEBF7D
:100C0000B0B1B2B3B4B5B6B7B8B9BABBBCBDBEBF6C
:100C1000B0B1B2B3B4B5B6B7B8B9BABBBCBDBEBF5C
:100C2000B0B1B2B3B4B5B6B7B8B9BABBBCBDBEBF4C
:100C3000B0B1B2B3B4B5B6B7B8B9BABBBCBDBEBF3C
:100C4000B0B1B2B3B4B5B6B7B8B9BABBBCBDBEBF2C
:100C5000B0B1B2B3B4B5B6B7B8B9BABBBCBDBEBF1C
:100C6000B0B1B2B3B4B5B6B7B8B9BABBBCBDBEBF0C
:100C7000B0B1B2B3B4B5B6B7B8B9BABBBCBDBEBFFC
:100C8000B0B1B2B3B4B5B6B7B8B9BABBBCBDBEBFEC
:100C9000B0B1B2B3B4B5B6B7B8B9BABBBCBDBEBFDC
:100CA000B0B1B2B3B4B5B6B7B8B9BABBBCBDBEBFCC
:100CB000B0B1B2B3B4B5B6B7B8B9BABBBCBDBEBFBC
:100CC000B0B1B2B3B4B5B6B7B8B9BABBBCBDBEBFAC
:100CD000B0B1B2B3B4B5B6B7B8B9BABBBCBDBEBF9C
:100CE000B0B1B2B3B4B5B6B7B8B9BABBBCBDBEBF8C
:100CF000B0B1B2B3B4B5B6B7B8B9BABBBCBDBEBF7C
:100D0000B0B1B2B3B4B5B6B7B8B9BABBBCBDBEBF6B
:100D1000B0B1B2B3B4B5B6B7B8B9BABBBCBDBEBF5B
:100D2000B0B1B2B3B4B5B6B7B8B9BABBBCBDBEBF4B
:100D3000B0B1B2B3B4B5B6B7B8B9BABBBCBDBEBF3B
:100D4000B0B1B2B3B4B5B6B7B8B9BABBBCBDBEBF2B
:100D5000B0B1B2B3B4B5B6B7B8B9BABBBCBDBEBF1B
:100D6000B0B1B2B3B4B5B6B7B8B9BABBBCBDBEBF0B
:100D7000B0B1B2B3B4B5B6B7B8B9BABBBCBDBEBFFB
:100D8000B0B1B2B3B4B5B6B7B8B9BABBBCBDBEBFEB
:100D9000B0B1B2B3B4B5B6B7B8B9BABBBCBDBEBFDB
:100DA000B0B1B2B3B4B5B6B7B8B9BABBBCBDBEBFCB
:100DB000B0B1B2B3B4B5B6B7B8B9BABBBCBDBEBFBB
:100DC000B0B1B2B3B4B5B6B7B8B9BABBBCBDBEBFAB
:100DD000B0B1B2B3B4B5B6B7B8B9BABBBCBDBEBF9B
:100DE000B0B1B2B3B4B5B6B7B8B9BABBBCBDBEBF8B
:100DF000B0B1B2B3B4B5B6B7B8B9BABBBCBDBEBF7B
:100E0000B0B1B2B3B4B5B6B7B8B9BABBBCBDBEBF6A
:100E1000B0B1B2B3B4B5B6B7B8B9BABBBCBDBEBF5A
:100E2000B0B1B2B3B4B5B6B7B8B9BABBBCBDBEBF4A
:100E3000B0B1B2B3B4B5B6B7B8B9BABBBCBDBEBF3A
:100E4000B0B1B2B3B4B5B6B7B8B9BABBBCBDBEBF2A
:100E5000B0B1B2B3B4B5B6B7B8B9BABBBCBDBEBF1A
:100E6000B0B1B2B3B4B5B6B7B8B9BABBBCBDBEBF0A
:100E7000B0B1B2B3B4B5B6B7B8B9BABBBCBDBEBFFA
:100E8000B0B1B2B3B4B5B6B7B8B9BABBBCBDBEBFEA
:100E9000B0B1B2B3B4B5B6B7B8B9BABBBCBDBEBFDA
:100EA000B0B1B2B3B4B5B6B7B8B9BABBBCBDBEBFCA
:100EB000B0B1B2B3B4B5B6B7B8B9BABBBCBDBEBFBA
:100EC000B0B1B2B3B4B5B6B7B8B9BABBBCBDBEBFAA
:100ED000B0B1B2B3B4B5B6B7B8B9BABBBCBDBEBF9A
:100EE000B0B1B2B3B4B5B6B7B8B9BABBBCBDBEBF8A
:100EF000B0B1B2B3B4B5B6B7B8B9BABBBCBDBEBF7A
:100F0000B0B1B2B3B4B5B6B7B8B9BABBBCBDBEBF69
:100F1000B0B1B2B3B4B5B6B7B8B9BABBBCBDBEBF59
:100F2000B0B1B2B3B4B5B6B7B8B9BABBBCBDBEBF49
:100F3000B0B1B2B3B4B5B6B7B8B9BABBBCBDBEBF39
:100F4000B0B1B2B3B4B5B6B7B8B9BABBBCBDBEBF29
:100F5000B0B1B2B3B4B5B6B7B8B9BABBBCBDBEBF19
:100F6000B0B1B2B3B4B5B6B7B8B9BABBBCBDBEBF09
:100F7000B0B1B2B3B4B5B6B7B8B9BABBBCBDBEBFF9
:100F8000B0B1B2B3B4B5B6B7B8B9BABBBCBDBEBFE9
:100F9000B0B1B2B3B4B5B6B7B8B9BABBBCBDBEBFD9
:100FA000B0B1B2B3B4B5B6B7B8B9BABBBCBDBEBFC9
:100FB000B0B1B2B3B4B5B6B7B8B9BABBBCBDBEBFB9
:100FC000B0B1B2B3B4B5B6B7B8B9BABBBCBDBEBFA9
:100FD000B0B1B2B3B4B5B6B7B8B9BABBBCBDBEBF99
:100FE000B0B1B2B3B4B5B6B7B8B9BABBBCBDBEBF89
:100FF000B0B1B2B3B4B5B6B7B8B9BABBBCBDBEBF79
:10100000B0B1B2B3B4B5B6B7B8B9BABBBCBDBEBF68
:10101000B0B1B2B3B4B5B6B7B8B9BABBBCBDBEBF58
:10102000B0B1B2B3B4B5B6B7B8B9BABBBCBDBEBF48
:10103000B0B1B2B3B4B5B6B7B8B9BABBBCBDBEBF38
:10104000B0B1B2B3B4B5B6B7B8B9BABBBCBDBEBF28
:10105000B0B1B2B3B4B5B6B7B8B9BABBBCBDBEBF18
:10106000B0B1B2B3B4B5B6B7B8B9BABBBCBDBEBF08
:10107000B0B1B2B3B4B5B6B7B8B9BABBBCBDBEBFF8
:10108000B0B1B2B3B4B5B6B7B8B9BABBBCBDBEBFE8
:10109000B0B1B2B3B4B5B6B7B8B9BABBBCBDBEBFD8
:1010A000B0B1B2B3B4B5B6B7B8B9BABBBCBDBEBFC8
:1010B000B0B1B2B3B4B5B6B7B8B9BABBBCBDBEBFB8
:1010C000B0B1B2B3B4B5B6B7B8B9BABBBCBDBEBFA8
:1010D000B0B1B2B3B4B5B6B7B8B9BABBBCBDBEBF98
:1010E000B0B1B2B3B4B5B6B7B8B9BABBBCBDBEBF88
:1010F000B0B1B2B3B4B5B6B7B8B9BABBBCBDBEBF78
:10110000B0B1B2B3B4B5B6B7B8B9BABBBCBDBEBF67
:10111000B0B1B2B3B4B5B6B7B8B9BABBBCBDBEBF57
:10112000B0B1B2B3B4B5B6B7B8B9BABBBCBDBEBF47
:10113000B0B1B2B3B4B5B6B7B8B9BABBBCBDBEBF37
:10114000B0B1B2B3B4B5B6B7B8B9BABBBCBDBEBF27
:10115000B0B1B2B3B4B5B6B7B8B9BABBBCBDBEBF17
:10116000B0B1B2B3B4B5B6B7B8B9BABBBCBDBEBF07
:10117000B0B1B2B3B4B5B6B7B8B9BABBBCBDBEBFF7
:10118000B0B1B2B3B4B5B6B7B8B9BABBBCBDBEBFE7
:10119000B0B1B2B3B4B5B6B7B8B9BABBBCBDBEBFD7
:1011A000B0B1B2B3B4B5B6B7B8B9BABBBCBDBEBFC7
:1011B000B0B1B2B3B4B5B6B7B8B9BABBBCBDBEBFB7
:1011C000B0B1B2B3B4B5B6B7B8B9BABBBCBDBEBFA7
:1011D000B0B1B2B3B4B5B6B7B8B9BABBBCBDBEBF97
:1011E000B0B1B2B3B4B5B6B7B8B9BABBBCBDBEBF87
:1011F000B0B1B2B3B4B5B6B7B8B9BABBBCBDBEBF77
:10120000B0B1B2B3B4B5B6B7B8B9BABBBCBDBEBF66
:10121000B0B1B2B3B4B5B6B7B8B9BABBBCBDBEBF56
:10122000B0B1B2B3B4B5B6B7B8B9BABBBCBDBEBF46
:10123000B0B1B2B3B4B5B6B7B8B9BABBBCBDBEBF36
:10124000B0B1B2B3B4B5B6B7B8B9BABBBCBDBEBF26
:10125000B0B1B2B3B4B5B6B7B8B9BABBBCBDBEBF16
:10126000B0B1B2B3B4B5B6B7B8B9BABBBCBDBEBF06
:10127000B0B1B2B3B4B5B6B7B8B9BABBBCBDBEBFF6
:10128000B0B1B2B3B4B5B6B7B8B9BABBBCBDBEBFE6
:10129000B0B1B2B3B4B5B6B7B8B9BABBBCBDBEBFD6
:1012A000B0B1B2B3B4B5B6B7B8B9BABBBCBDBEBFC6
:1012B000B0B1B2B3B4B5B6B7B8B9BABBBCBDBEBFB6
:1012C000B0B1B2B3B4B5B6B7B8B9BABBBCBDBEBFA6
:1012D000B0B1B2B3B4B5B6B7B8B9BABBBCBDBEBF96
:1012E000B0B1B2B3B4B5B6B7B8B9BABBBCBDBEBF86
:1012F000B0B1B2B3B4B5B6B7B8B9BABBBCBDBEBF76
:10130000B0B1B2B3B4B5B6B7B8B9BABBBCBDBEBF65
:10131000B0B1B2B3B4B5B6B7B8B9BABBBCBDBEBF55
:10132000B0B1B2B3B4B5B6B7B8B9BABBBCBDBEBF45
:10133000B0B1B2B3B4B5B6B7B8B9BABBBCBDBEBF35
:10134000B0B1B2B3B4B5B6B7B8B9BABBBCBDBEBF25
:10135000B0B1B2B3B4B5B6B7B8B9BABBBCBDBEBF15
:10136000B0B1B2B3B4B5B6B7B8B9BABBBCBDBEBF05
:10137000B0B1B2B3B4B5B6B7B8B9BABBBCBDBEBFF5
:10138000B0B1B2B3B4B5B6B7B8B9BABBBCBDBEBFE5
:10139000B0B1B2B3B4B5B6B7B8B9BABBBCBDBEBFD5
:1013A000B0B1B2B3B4B5B6B7B8B9BABBBCBDBEBFC5
:1013B000B0B1B2B3B4B5B6B7B8B9BABBBCBDBEBFB5
:1013C000B0B1B2B3B4B5B6B7B8B9BABBBCBDBEBFA5
:1013D000B0B1B2B3B4B5B6B7B8B9BABBBCBDBEBF95
:1013E000B0B1B2B3B4B5B6B7B8B9BABBBCBDBEBF85
:1013F000B0B1B2B3B4B5B6B7B8B9BABBBCBDBEBF75
:10140000B0B1B2B3B4B5B6B7B8B9BABBBCBDBEBF64
:10141000B0B1B2B3B4B5B6B7B8B9BABBBCBDBEBF54
:10142000B0B1B2B3B4B5B6B7B8B9BABBBCBDBEBF44
:10143000B0B1B2B3B4B5B6B7B8B9BABBBCBDBEBF34
:10144000B0B1B2B3B4B5B6B7B8B9BABBBCBDBEBF24
:10145000B0B1B2B3B4B5B6B7B8B9BABBBCBDBEBF14
:10146000B0B1B2B3B4B5B6B7B8B9BABBBCBDBEBF04
:10147000B0B1B2B3B4B5B6B7B8B9BABBBCBDBEBFF4
:10148000B0B1B2B3B4B5B6B7B8B9BABBBCBDBEBFE4
:10149000B0B1B2B3B4B5B6B7B8B9BABBBCBDBEBFD4
:1014A000B0B1B2B3B4B5B6B7B8B9BABBBCBDBEBFC4
:1014B000B0B1B2B3B4B5B6B7B8B9BABBBCBDBEBFB4
:1014C000B0B1B2B3B4B5B6B7B8B9BABBBCBDBEBFA4
:1014D000B0B1B2B3B4B5B6B7B8B9BABBBCBDBEBF94
:1014E000B0B1B2B3B4B5B6B7B8B9BABBBCBDBEBF84
:1014F000B0B1B2B3B4B5B6B7B8B9BABBBCBDBEBF74
:10150000B0B1B2B3B4B5B6B7B8B9BABBBCBDBEBF63
:10151000B0B1B2B3B4B5B6B7B8B9BABBBCBDBEBF53
:10152000B0B1B2B3B4B5B6B7B8B9BABBBCBDBEBF43
:10153000B0B1B2B3B4B5B6B7B8B9BABBBCBDBEBF33
:10154000B0B1B2B3B4B5B6B7B8B9BABBBCBDBEBF23
:10155000B0B1B2B3B4B5B6B7B8B9BABBBCBDBEBF13
:10156000B0B1B2B3B4B5B6B7B8B9BABBBCBDBEBF03
:10157000B0B1B2B3B4B5B6B7B8B9BABBBCBDBEBFF3
:10158000B0B1B2B3B4B5B6B7B8B9BABBBCBDBEBFE3
:10159000B0B1B2B3B4B5B6B7B8B9BABBBCBDBEBFD3
:1015A000B0B1B2B3B4B5B6B7B8B9BABBBCBDBEBFC3
:1015B000B0B1B2B3B4B5B6B7B8B9BABBBCBDBEBFB3
:1015C000B0B1B2B3B4B5B6B7B8B9BABBBCBDBEBFA3
:1015D000B0B1B2B3B4B5B6B7B8B9BABBBCBDBEBF93
:1015E000B0B1B2B3B4B5B6B7B8B9BABBBCBDBEBF83
:1015F000B0B1B2B3B4B5B6B7B8B9BABBBCBDBEBF73
:10160000B0B1B2B3B4B5B6B7B8B9BABBBCBDBEBF62
:10161000B0B1B2B3B4B5B6B7B8B9BABBBCBDBEBF52
:10162000B0B1B2B3B4B5B6B7B8B9BABBBCBDBEBF42
:10163000B0B1B2B3B4B5B6B7B8B9BABBBCBDBEBF32
:10164000B0B1B2B3B4B5B6B7B8B9BABBBCBDBEBF22
:10165000B0B1B2B3B4B5B6B7B8B9BABBBCBDBEBF12
:10166000B0B1B2B3B4B5B6B7B8B9BABBBCBDBEBF02
:10167000B0B1B2B3B4B5B6B7B8B9BABBBCBDBEBFF2
:10168000B0B1B2B3B4B5B6B7B8B9BABBBCBDBEBFE2
:10169000B0B1B2B3B4B5B6B7B8B9BABBBCBDBEBFD2
:1016A000B0B1B2B3B4B5B6B7B8B9BABBBCBDBEBFC2
:1016B000B0B1B2B3B4B5B6B7B8B9BABBBCBDBEBFB2
:1016C000B0B1B2B3B4B5B6B7B8B9BABBBCBDBEBFA2
:1016D000B0B1B2B3B4B5B6B7B8B9BABBBCBDBEBF92
:1016E000B0B1B2B3B4B5B6B7B8B9BABBBCBDBEBF82
:1016F000B0B1B2B3B4B5B6B7B8B9BABBBCBDBEBF72
:10170000B0B1B2B3B4B5B6B7B8B9BABBBCBDBEBF61
:10171000B0B1B2B3B4B5B6B7B8B9BABBBCBDBEBF51
:10172000B0B1B2B3B4B5B6B7B8B9BABBBCBDBEBF41
:10173000B0B1B2B3B4B5B6B7B8B9BABBBCBDBEBF31
:10174000B0B1B2B3B4B5B6B7B8B9BABBBCBDBEBF21
:10175000B0B1B2B3B4B5B6B7B8B9BABBBCBDBEBF11
:10176000B0B1B2B3B4B5B6B7B8B9BABBBCBDBEBF01
:10177000B0B1B2B3B4B5B6B7B8B9BABBBCBDBEBFF1
:10178000B0B1B2B3B4B5B6B7B8B9BABBBCBDBEBFE1
:10179000B0B1B2B3B4B5B6B7B8B9BABBBCBDBEBFD1
:1017A000B0B1B2B3B4B5B6B7B8B9BABBBCBDBEBFC1
:1017B000B0B1B2B3B4B5B6B7B8B9BABBBCBDBEBFB1
:1017C000B0B1B2B3B4B5B6B7B8B9BABBBCBDBEBFA1
:1017D000B0B1B2B3B4B5B6B7B8B9BABBBCBDBEBF91
:1017E000B0B1B2B3B4B5B6B7B8B9BABBBCBDBEBF81
:1017F000B0B1B2B3B4B5B6B7B8B9BABBBCBDBEBF71
:10180000B0B1B2B3B4B5B6B7B8B9BABBBCBDBEBF60
:10181000B0B1B2B3B4B5B6B7B8B9BABBBCBDBEBF50
:10182000B0B1B2B3B4B5B6B7B8B9BABBBCBDBEBF40
:10183000B0B1B2B3B4B5B6B7B8B9BABBBCBDBEBF30
:10184000B0B1B2B3B4B5B6B7B8B9BABBBCBDBEBF20
:10185000B0B1B2B3B4B5B6B7B8B9BABBBCBDBEBF10
:10186000B0B1B2B3B4B5B6B7B8B9BABBBCBDBEBF00
:10187000B0B1B2B3B4B5B6B7B8B9BABBBCBDBEBFF0
:10188000B0B1B2B3B4B5B6B7B8B9BABBBCBDBEBFE0
:10189000B0B1B2B3B4B5B6B7B8B9BABBBCBDBEBFD0
:1018A000B0B1B2B3B4B5B6B7B8B9BABBBCBDBEBFC0
:1018B000B0B1B2B3B4B5B6B7B8B9BABBBCBDBEBFB0
:1018C000B0B1B2B3B4B5B6B7B8B9BABBBCBDBEBFA0
:1018D000B0B1B2B3B4B5B6B7B8B9BABBBCBDBEBF90
:1018E000B0B1B2B3B4B5B6B7B8B9BABBBCBDBEBF80
:1018F000B0B1B2B3B4B5B6B7B8B9BABBBCBDBEBF70
:10190000B0B1B2B3B4B5B6B7B8B9BABBBCBDBEBF5F
:10191000B0B1B2B3B4B5B6B7B8B9BABBBCBDBEBF4F
:10192000B0B1B2B3B4B5B6B7B8B9BABBBCBDBEBF3F
:10193000B0B1B2B3B4B5B6B7B8B9BABBBCBDBEBF2F
:10194000B0B1B2B3B4B5B6B7B8B9BABBBCBDBEBF1F
:10195000B0B1B2B3B4B5B6B7B8B9BABBBCBDBEBF0F
:10196000B0B1B2B3B4B5B6B7B8B9BABBBCBDBEBFFF
:10197000B0B1B2B3B4B5B6B7B8B9BABBBCBDBEBFEF
:10198000B0B1B2B3B4B5B6B7B8B9BABBBCBDBEBFDF
:10199000B0B1B2B3B4B5B6B7B8B9BABBBCBDBEBFCF
:1019A000B0B1B2B3B4B5B6B7B8B9BABBBCBDBEBFBF
:1019B000B0B1B2B3B4B5B6B7B8B9BABBBCBDBEBFAF
:1019C000B0B1B2B3B4B5B6B7B8B9BABBBCBDBEBF9F
:1019D000B0B1B2B3B4B5B6B7B8B9BABBBCBDBEBF8F
:1019E000B0B1B2B3B4B5B6B7B8B9BABBBCBDBEBF7F
:1019F000B0B1B2B3B4B5B6B7B8B9BABBBCBDBEBF6F
:101A0000B0B1B2B3B4B5B6B7B8B9BABBBCBDBEBF5E
:101A1000B0B1B2B3B4B5B6B7B8B9BABBBCBDBEBF4E
:101A2000B0B1B2B3B4B5B6B7B8B9BABBBCBDBEBF3E
:101A3000B0B1B2B3B4B5B6B7B8B9BABBBCBDBEBF2E
:101A4000B0B1B2B3B4B5B6B7B8B9BABBBCBDBEBF1E
:101A5000B0B1B2B3B4B5B6B7B8B9BABBBCBDBEBF0E
:101A6000B0B1B2B3B4B5B6B7B8B9BABBBCBDBEBFFE
:101A7000B0B1B2B3B4B5B6B7B8B9BABBBCBDBEBFEE
:101A8000B0B1B2B3B4B5B6B7B8B9BABBBCBDBEBFDE
:101A9000B0B1B2B3B4B5B6B7B8B9BABBBCBDBEBFCE
:101AA000B0B1B2B3B4B5B6B7B8B9BABBBCBDBEBFBE
:101AB000B0B1B2B3B4B5B6B7B8B9BABBBCBDBEBFAE
:101AC000B0B1B2B3B4B5B6B7B8B9BABBBCBDBEBF9E
:101AD000B0B1B2B3B4B5B6B7B8B9BABBBCBDBEBF8E
:101AE000B0B1B2B3B4B5B6B7B8B9BABBBCBDBEBF7E
:101AF000B0B1B2B3B4B5B6B7B8B9BABBBCBDBEBF6E
:101B0000B0B1B2B3B4B5B6B7B8B9BABBBCBDBEBF5D
:101B1000B0B1B2B3B4B5B6B7B8B9BABBBCBDBEBF4D
:101B2000B0B1B2B3B4B5B6B7B8B9BABBBCBDBEBF3D
:101B3000B0B1B2B3B4B5B6B7B8B9BABBBCBDBEBF2D
:101B4000B0B1B2B3B4B5B6B7B8B9BABBBCBDBEBF1D
:101B5000B0B1B2B3B4B5B6B7B8B9BABBBCBDBEBF0D
:101B6000B0B1B2B3B4B5B6B7B8B9BABBBCBDBEBFFD
:101B7000B0B1B2B3B4B5B6B7B8B9BABBBCBDBEBFED
:101B8000B0B1B2B3B4B5B6B7B8B9BABBBCBDBEBFDD
:101B9000B0B1B2B3B4B5B6B7B8B9BABBBCBDBEBFCD
:101BA000B0B1B2B3B4B5B6B7B8B9BABBBCBDBEBFBD
:101BB000B0B1B2B3B4B5B6B7B8B9BABBBCBDBEBFAD
:101BC000B0B1B2B3B4B5B6B7B8B9BABBBCBDBEBF9D
:101BD000B0B1B2B3B4B5B6B7B8B9BABBBCBDBEBF8D
:101BE000B0B1B2B3B4B5B6B7B8B9BABBBCBDBEBF7D
:101BF000B0B1B2B3B4B5B6B7B8B9BABBBCBDBEBF6D
:101C0000B0B1B2B3B4B5B6B7B8B9BABBBCBDBEBF5C
:101C1000B0B1B2B3B4B5B6B7B8B9BABBBCBDBEBF4C
:101C2000B0B1B2B3B4B5B6B7B8B9BABBBCBDBEBF3C
:101C3000B0B1B2B3B4B5B6B7B8B9BABBBCBDBEBF2C
:101C4000B0B1B2B3B4B5B6B7B8B9BABBBCBDBEBF1C
:101C5000B0B1B2B3B4B5B6B7B8B9BABBBCBDBEBF0C
:101C6000B0B1B2B3B4B5B6B7B8B9BABBBCBDBEBFFC
:101C7000B0B1B2B3B4B5B6B7B8B9BABBBCBDBEBFEC
:101C8000B0B1B2B3B4B5B6B7B8B9BABBBCBDBEBFDC
:101C9000B0B1B2B3B4B5B6B7B8B9BABBBCBDBEBFCC
:101CA000B0B1B2B3B4B5B6B7B8B9BABBBCBDBEBFBC
:101CB000B0B1B2B3B4B5B6B7B8B9BABBBCBDBEBFAC
:101CC000B0B1B2B3B4B5B6B7B8B9BABBBCBDBEBF9C
:101CD000B0B1B2B3B4B5B6B7B8B9BABBBCBDBEBF8C
:101CE000B0B1B2B3B4B5B6B7B8B9BABBBCBDBEBF7C
:101CF000B0B1B2B3B4B5B6B7B8B9BABBBCBDBEBF6C
:101D0000B0B1B2B3B4B5B6B7B8B9BABBBCBDBEBF5B
:101D1000B0B1B2B3B4B5B6B7B8B9BABBBCBDBEBF4B
:101D2000B0B1B2B3B4B5B6B7B8B9BABBBCBDBEBF3B
:101D3000B0B1B2B3B4B5B6B7B8B9BABBBCBDBEBF2B
:101D4000B0B1B2B3B4B5B6B7B8B9BABBBCBDBEBF1B
:101D5000B0B1B2B3B4B5B6B7B8B9BABBBCBDBEBF0B
:101D6000B0B1B2B3B4B5B6B7B8B9BABBBCBDBEBFFB
:101D7000B0B1B2B3B4B5B6B7B8B9BABBBCBDBEBFEB
:101D8000B0B1B2B3B4B5B6B7B8B9BABBBCBDBEBFDB
:101D9000B0B1B2B3B4B5B6B7B8B9BABBBCBDBEBFCB
:101DA000B0B1B2B3B4B5B6B7B8B9BABBBCBDBEBFBB
:101DB000B0B1B2B3B4B5B6B7B8B9BABBBCBDBEBFAB
:101DC000B0B1B2B3B4B5B6B7B8B9BABBBCBDBEBF9B
:101DD000B0B1B2B3B4B5B6B7B8B9BABBBCBDBEBF8B
:101DE000B0B1B2B3B4B5B6B7B8B9BABBBCBDBEBF7B
:101DF000B0B1B2B3B4B5B6B7B8B9BABBBCBDBEBF6B
:101E0000B0B1B2B3B4B5B6B7B8B9BABBBCBDBEBF5A
:101E1000B0B1B2B3B4B5B6B7B8B9BABBBCBDBEBF4A
:101E2000B0B1B2B3B4B5B6B7B8B9BABBBCBDBEBF3A
:101E3000B0B1B2B3B4B5B6B7B8B9BABBBCBDBEBF2A
:101E4000B0B1B2B3B4B5B6B7B8B9BABBBCBDBEBF1A
:101E5000B0B1B2B3B4B5B6B7B8B9BABBBCBDBEBF0A
:101E6000B0B1B2B3B4B5B6B7B8B9BABBBCBDBEBFFA
:101E7000B0B1B2B3B4B5B6B7B8B9BABBBCBDBEBFEA
:101E8000B0B1B2B3B4B5B6B7B8B9BABBBCBDBEBFDA
:101E9000B0B1B2B3B4B5B6B7B8B9BABBBCBDBEBFCA
:101EA000B0B1B2B3B4B5B6B7B8B9BABBBCBDBEBFBA
:101EB000B0B1B2B3B4B5B6B7B8B9BABBBCBDBEBFAA
:101EC000B0B1B2B3B4B5B6B7B8B9BABBBCBDBEBF9A
:101ED000B0B1B2B3B4B5B6B7B8B9BABBBCBDBEBF8A
:101EE000B0B1B2B3B4B5B6B7B8B9BABBBCBDBEBF7A
:101EF000B0B1B2B3B4B5B6B7B8B9BABBBCBDBEBF6A
:101F0000B0B1B2B3B4B5B6B7B8B9BABBBCBDBEBF59
:101F1000B0B1B2B3B4B5B6B7B8B9BABBBCBDBEBF49
:101F2000B0B1B2B3B4B5B6B7B8B9BABBBCBDBEBF39
:101F3000B0B1B2B3B4B5B6B7B8B9BABBBCBDBEBF29
:101F4000B0B1B2B3B4B5B6B7B8B9BABBBCBDBEBF19
:101F5000B0B1B2B3B4B5B6B7B8B9BABBBCBDBEBF09
:101F6000B0B1B2B3B4B5B6B7B8B9BABBBCBDBEBFF9
:101F7000B0B1B2B3B4B5B6B7B8B9BABBBCBDBEBFE9
:101F8000B0B1B2B3B4B5B6B7B8B9BABBBCBDBEBFD9
:101F9000B0B1B2B3B4B5B6B7B8B9BABBBCBDBEBFC9
:101FA000B0B1B2B3B4B5B6B7B8B9BABBBCBDBEBFB9
:101FB000B0B1B2B3B4B5B6B7B8B9BABBBCBDBEBFA9
:101FC000B0B1B2B3B4B5B6B7B8B9BABBBCBDBEBF99
:101FD000B0B1B2B3B4B5B6B7B8B9BABBBCBDBEBF89
:101FE000B0B1B2B3B4B5B6B7B8B9BABBBCBDBEBF79
:101FF000B0B1B2B3B4B5B6B7B8B9BABBBCBDBEBF69
:10200000B0B1B2B3B4B5B6B7B8B9BABBBCBDBEBF58
:10201000B0B1B2B3B4B5B6B7B8B9BABBBCBDBEBF48
:10202000B0B1B2B3B4B5B6B7B8B9BABBBCBDBEBF38
:10203000B0B1B2B3B4B5B6B7B8B9BABBBCBDBEBF28
:10204000B0B1B2B3B4B5B6B7B8B9BABBBCBDBEBF18
:10205000B0B1B2B3B4B5B6B7B8B9BABBBCBDBEBF08
:10206000B0B1B2B3B4B5B6B7B8B9BABBBCBDBEBFF8
:10207000B0B1B2B3B4B5B6B7B8B9BABBBCBDBEBFE8
:10208000B0B1B2B3B4B5B6B7B8B9BABBBCBDBEBFD8
:10209000B0B1B2B3B4B5B6B7B8B9BABBBCBDBEBFC8
:1020A000B0B1B2B3B4B5B6B7B8B9BABBBCBDBEBFB8
:1020B000B0B1B2B3B4B5B6B7B8B9BABBBCBDBEBFA8
:1020C000B0B1B2B3B4B5B6B7B8B9BABBBCBDBEBF98
:1020D000B0B1B2B3B4B5B6B7B8B9BABBBCBDBEBF88
:1020E000B0B1B2B3B4B5B6B7B8B9BABBBCBDBEBF78
:1020F000B0B1B2B3B4B5B6B7B8B9BABBBCBDBEBF68
:10210000B0B1B2B3B4B5B6B7B8B9BABBBCBDBEBF57
:10211000B0B1B2B3B4B5B6B7B8B9BABBBCBDBEBF47
:10212000B0B1B2B3B4B5B6B7B8B9BABBBCBDBEBF37
:10213000B0B1B2B3B4B5B6B7B8B9BABBBCBDBEBF27
:10214000B0B1B2B3B4B5B6B7B8B9BABBBCBDBEBF17
:10215000B0B1B2B3B4B5B6B7B8B9BABBBCBDBEBF07
:10216000B0B1B2B3B4B5B6B7B8B9BABBBCBDBEBFF7
:10217000B0B1B2B3B4B5B6B7B8B9BABBBCBDBEBFE7
:10218000B0B1B2B3B4B5B6B7B8B9BABBBCBDBEBFD7
:10219000B0B1B2B3B4B5B6B7B8B9BABBBCBDBEBFC7
:1021A000B0B1B2B3B4B5B6B7B8B9BABBBCBDBEBFB7
:1021B000B0B1B2B3B4B5B6B7B8B9BABBBCBDBEBFA7
:1021C000B0B1B2B3B4B5B6B7B8B9BABBBCBDBEBF97
:1021D000B0B1B2B3B4B5B6B7B8B9BABBBCBDBEBF87
:1021E000B0B1B2B3B4B5B6B7B8B9BABBBCBDBEBF77
:1021F000B0B1B2B3B4B5B6B7B8B9BABBBCBDBEBF67
:10220000B0B1B2B3B4B5B6B7B8B9BABBBCBDBEBF56
:10221000B0B1B2B3B4B5B6B7B8B9BABBBCBDBEBF46
:10222000B0B1B2B3B4B5B6B7B8B9BABBBCBDBEBF36
:10223000B0B1B2B3B4B5B6B7B8B9BABBBCBDBEBF26
:10224000B0B1B2B3B4B5B6B7B8B9BABBBCBDBEBF16
:10225000B0B1B2B3B4B5B6B7B8B9BABBBCBDBEBF06
:10226000B0B1B2B3B4B5B6B7B8B9BABBBCBDBEBFF6
:10227000B0B1B2B3B4B5B6B7B8B9BABBBCBDBEBFE6
:10228000B0B1B2B3B4B5B6B7B8B9BABBBCBDBEBFD6
:10229000B0B1B2B3B4B5B6B7B8B9BABBBCBDBEBFC6
:1022A000B0B1B2B3B4B5B6B7B8B9BABBBCBDBEBFB6
:1022B000B0B1B2B3B4B5B6B7B8B9BABBBCBDBEBFA6
:1022C000B0B1B2B3B4B5B6B7B8B9BABBBCBDBEBF96
:1022D000B0B1B2B3B4B5B6B7B8B9BABBBCBDBEBF86
:1022E000B0B1B2B3B4B5B6B7B8B9BABBBCBDBEBF76
:1022F000B0B1B2B3B4B5B6B7B8B9BABBBCBDBEBF66
:10230000B0B1B2B3B4B5B6B7B8B9BABBBCBDBEBF55
:10231000B0B1B2B3B4B5B6B7B8B9BABBBCBDBEBF45
:10232000B0B1B2B3B4B5B6B7B8B9BABBBCBDBEBF35
:10233000B0B1B2B3B4B5B6B7B8B9BABBBCBDBEBF25
:10234000B0B1B2B3B4B5B6B7B8B9BABBBCBDBEBF15
:10235000B0B1B2B3B4B5B6B7B8B9BABBBCBDBEBF05
:10236000B0B1B2B3B4B5B6B7B8B9BABBBCBDBEBFF5
:10237000B0B1B2B3B4B5B6B7B8B9BABBBCBDBEBFE5
:10238000B0B1B2B3B4B5B6B7B8B9BABBBCBDBEBFD5
:10239000B0B1B2B3B4B5B6B7B8B9BABBBCBDBEBFC5
:1023A000B0B1B2B3B4B5B6B7B8B9BABBBCBDBEBFB5
:1023B000B0B1B2B3B4B5B6B7B8B9BABBBCBDBEBFA5
:1023C000B0B1B2B3B4B5B6B7B8B9BABBBCBDBEBF95
:1023D000B0B1B2B3B4B5B6B7B8B9BABBBCBDBEBF85
:1023E000B0B1B2B3B4B5B6B7B8B9BABBBCBDBEBF75
:1023F000B0B1B2B3B4B5B6B7B8B9BABBBCBDBEBF65
:10240000B0B1B2B3B4B5B6B7B8B9BABBBCBDBEBF54
:10241000B0B1B2B3B4B5B6B7B8B9BABBBCBDBEBF44
:10242000B0B1B2B3B4B5B6B7B8B9BABBBCBDBEBF34
:10243000B0B1B2B3B4B5B6B7B8B9BABBBCBDBEBF24
:10244000B0B1B2B3B4B5B6B7B8B9BABBBCBDBEBF14
:10245000B0B1B2B3B4B5B6B7B8B9BABBBCBDBEBF04
:10246000B0B1B2B3B4B5B6B7B8B9BABBBCBDBEBFF4
:10247000B0B1B2B3B4B5B6B7B8B9BABBBCBDBEBFE4
:10248000B0B1B2B3B4B5B6B7B8B9BABBBCBDBEBFD4
:10249000B0B1B2B3B4B5B6B7B8B9BABBBCBDBEBFC4
:1024A000B0B1B2B3B4B5B6B7B8B9BABBBCBDBEBFB4
:1024B000B0B1B2B3B4B5B6B7B8B9BABBBCBDBEBFA4
:1024C000B0B1B2B3B4B5B6B7B8B9BABBBCBDBEBF94
:1024D000B0B1B2B3B4B5B6B7B8B9BABBBCBDBEBF84
:1024E000B0B1B2B3B4B5B6B7B8B9BABBBCBDBEBF74
:1024F000B0B1B2B3B4B5B6B7B8B9BABBBCBDBEBF64
:10250000B0B1B2B3B4B5B6B7B8B9BABBBCBDBEBF53
:10251000B0B1B2B3B4B5B6B7B8B9BABBBCBDBEBF43
:10252000B0B1B2B3B4B5B6B7B8B9BABBBCBDBEBF33
:10253000B0B1B2B3B4B5B6B7B8B9BABBBCBDBEBF23
:10254000B0B1B2B3B4B5B6B7B8B9BABBBCBDBEBF13
:10255000B0B1B2B3B4B5B6B7B8B9BABBBCBDBEBF03
:10256000B0B1B2B3B4B5B6B7B8B9BABBBCBDBEBFF3
:10257000B0B1B2B3B4B5B6B7B8B9BABBBCBDBEBFE3
:10258000B0B1B2B3B4B5B6B7B8B9BABBBCBDBEBFD3
:10259000B0B1B2B3B4B5B6B7B8B9BABBBCBDBEBFC3
:1025A000B0B1B2B3B4B5B6B7B8B9BABBBCBDBEBFB3
:1025B000B0B1B2B3B4B5B6B7B8B9BABBBCBDBEBFA3
:1025C000B0B1B2B3B4B5B6B7B8B9BABBBCBDBEBF93
:1025D000B0B1B2B3B4B5B6B7B8B9BABBBCBDBEBF83
:1025E000B0B1B2B3B4B5B6B7B8B9BABBBCBDBEBF73
:1025F000B0B1B2B3B4B5B6B7B8B9BABBBCBDBEBF63
:10260000B0B1B2B3B4B5B6B7B8B9BABBBCBDBEBF52
:10261000B0B1B2B3B4B5B6B7B8B9BABBBCBDBEBF42
:10262000B0B1B2B3B4B5B6B7B8B9BABBBCBDBEBF32
:10263000B0B1B2B3B4B5B6B7B8B9BABBBCBDBEBF22
:10264000B0B1B2B3B4B5B6B7B8B9BABBBCBDBEBF12
:10265000B0B1B2B3B4B5B6B7B8B9BABBBCBDBEBF02
:10266000B0B1B2B3B4B5B6B7B8B9BABBBCBDBEBFF2
:10267000B0B1B2B3B4B5B6B7B8B9BABBBCBDBEBFE2
:10268000B0B1B2B3B4B5B6B7B8B9BABBBCBDBEBFD2
:10269000B0B1B2B3B4B5B6B7B8B9BABBBCBDBEBFC2
:1026A000B0B1B2B3B4B5B6B7B8B9BABBBCBDBEBFB2
:1026B000B0B1B2B3B4B5B6B7B8B9BABBBCBDBEBFA2
:1026C000B0B1B2B3B4B5B6B7B8B9BABBBCBDBEBF92
:1026D000B0B1B2B3B4B5B6B7B8B9BABBBCBDBEBF82
:1026E000B0B1B2B3B4B5B6B7B8B9BABBBCBDBEBF72
:1026F000B0B1B2B3B4B5B6B7B8B9BABBBCBDBEBF62
:10270000B0B1B2B3B4B5B6B7B8B9BABBBCBDBEBF51
:10271000B0B1B2B3B4B5B6B7B8B9BABBBCBDBEBF41
:10272000B0B1B2B3B4B5B6B7B8B9BABBBCBDBEBF31
:10273000B0B1B2B3B4B5B6B7B8B9BABBBCBDBEBF21
:10274000B0B1B2B3B4B5B6B7B8B9BABBBCBDBEBF11
:10275000B0B1B2B3B4B5B6B7B8B9BABBBCBDBEBF01
:10276000B0B1B2B3B4B5B6B7B8B9BABBBCBDBEBFF1
:10277000B0B1B2B3B4B5B6B7B8B9BABBBCBDBEBFE1
:10278000B0B1B2B3B4B5B6B7B8B9BABBBCBDBEBFD1
:10279000B0B1B2B3B4B5B6B7B8B9BABBBCBDBEBFC1
:1027A000B0B1B2B3B4B5B6B7B8B9BABBBCBDBEBFB1
:1027B000B0B1B2B3B4B5B6B7B8B9BABBBCBDBEBFA1
:1027C000B0B1B2B3B4B5B6B7B8B9BABBBCBDBEBF91
:1027D000B0B1B2B3B4B5B6B7B8B9BABBBCBDBEBF81
:1027E000B0B1B2B3B4B5B6B7B8B9BABBBCBDBEBF71
:1027F000B0B1B2B3B4B5B6B7B8B9BABBBCBDBEBF61
:10280000B0B1B2B3B4B5B6B7B8B9BABBBCBDBEBF50
:10281000B0B1B2B3B4B5B6B7B8B9BABBBCBDBEBF40
:10282000B0B1B2B3B4B5B6B7B8B9BABBBCBDBEBF30
:10283000B0B1B2B3B4B5B6B7B8B9BABBBCBDBEBF20
:10284000B0B1B2B3B4B5B6B7B8B9BABBBCBDBEBF10
:10285000B0B1B2B3B4B5B6B7B8B9BABBBCBDBEBF00
:10286000B0B1B2B3B4B5B6B7B8B9BABBBCBDBEBFF0
:10287000B0B1B2B3B4B5B6B7B8B9BABBBCBDBEBFE0
:10288000B0B1B2B3B4B5B6B7B8B9BABBBCBDBEBFD0
:10289000B0B1B2B3B4B5B6B7B8B9BABBBCBDBEBFC0
:1028A000B0B1B2B3B4B5B6B7B8B9BABBBCBDBEBFB0
:1028B000B0B1B2B3B4B5B6B7B8B9BABBBCBDBEBFA0
:1028C000B0B1B2B3B4B5B6B7B8B9BABBBCBDBEBF90
:1028D000B0B1B2B3B4B5B6B7B8B9BABBBCBDBEBF80
:1028E000B0B1B2B3B4B5B6B7B8B9BABBBCBDBEBF70
:1028F000B0B1B2B3B4B5B6B7B8B9BABBBCBDBEBF60
:10290000B0B1B2B3B4B5B6B7B8B9BABBBCBDBEBF4F
:10291000B0B1B2B3B4B5B6B7B8B9BABBBCBDBEBF3F
:10292000B0B1B2B3B4B5B6B7B8B9BABBBCBDBEBF2F
:10293000B0B1B2B3B4B5B6B7B8B9BABBBCBDBEBF1F
:10294000B0B1B2B3B4B5B6B7B8B9BABBBCBDBEBF0F
:10295000B0B1B2B3B4B5B6B7B8B9BABBBCBDBEBFFF
:10296000B0B1B2B3B4B5B6B7B8B9BABBBCBDBEBFEF
:10297000B0B1B2B3B4B5B6B7B8B9BABBBCBDBEBFDF
:10298000B0B1B2B3B4B5B6B7B8B9BABBBCBDBEBFCF
:10299000B0B1B2B3B4B5B6B7B8B9BABBBCBDBEBFBF
:1029A000B0B1B2B3B4B5B6B7B8B9BABBBCBDBEBFAF
:1029B000B0B1B2B3B4B5B6B7B8B9BABBBCBDBEBF9F
:1029C000B0B1B2B3B4B5B6B7B8B9BABBBCBDBEBF8F
:1029D000B0B1B2B3B4B5B6B7B8B9BABBBCBDBEBF7F
:1029E000B0B1B2B3B4B5B6B7B8B9BABBBCBDBEBF6F
:1029F000B0B1B2B3B4B5B6B7B8B9BABBBCBDBEBF5F
:102A0000B0B1B2B3B4B5B6B7B8B9BABBBCBDBEBF4E
:102A1000B0B1B2B3B4B5B6B7B8B9BABBBCBDBEBF3E
:102A2000B0B1B2B3B4B5B6B7B8B9BABBBCBDBEBF2E
:102A3000B0B1B2B3B4B5B6B7B8B9BABBBCBDBEBF1E
:102A4000B0B1B2B3B4B5B6B7B8B9BABBBCBDBEBF0E
:102A5000B0B1B2B3B4B5B6B7B8B9BABBBCBDBEBFFE
:102A6000B0B1B2B3B4B5B6B7B8B9BABBBCBDBEBFEE
:102A7000B0B1B2B3B4B5B6B7B8B9BABBBCBDBEBFDE
:102A8000B0B1B2B3B4B5B6B7B8B9BABBBCBDBEBFCE
:102A9000B0B1B2B3B4B5B6B7B8B9BABBBCBDBEBFBE
:102AA000B0B1B2B3B4B5B6B7B8B9BABBBCBDBEBFAE
:102AB000B0B1B2B3B4B5B6B7B8B9BABBBCBDBEBF9E
:102AC000B0B1B2B3B4B5B6B7B8B9BABBBCBDBEBF8E
:102AD000B0B1B2B3B4B5B6B7B8B9BABBBCBDBEBF7E
:102AE000B0B1B2B3B4B5B6B7B8B9BABBBCBDBEBF6E
:102AF000B0B1B2B3B4B5B6B7B8B9BABBBCBDBEBF5E
:102B0000B0B1B2B3B4B5B6B7B8B9BABBBCBDBEBF4D
:102B1000B0B1B2B3B4B5B6B7B8B9BABBBCBDBEBF3D
:102B2000B0B1B2B3B4B5B6B7B8B9BABBBCBDBEBF2D
:102B3000B0B1B2B3B4B5B6B7B8B9BABBBCBDBEBF1D
:102B4000B0B1B2B3B4B5B6B7B8B9BABBBCBDBEBF0D
:102B5000B0B1B2B3B4B5B6B7B8B9BABBBCBDBEBFFD
:102B6000B0B1B2B3B4B5B6B7B8B9BABBBCBDBEBFED
:102B7000B0B1B2B3B4B5B6B7B8B9BABBBCBDBEBFDD
:102B8000B0B1B2B3B4B5B6B7B8B9BABBBCBDBEBFCD
:102B9000B0B1B2B3B4B5B6B7B8B9BABBBCBDBEBFBD
:102BA000B0B1B2B3B4B5B6B7B8B9BABBBCBDBEBFAD
:102BB000B0B1B2B3B4B5B6B7B8B9BABBBCBDBEBF9D
:102BC000B0B1B2B3B4B5B6B7B8B9BABBBCBDBEBF8D
:102BD000B0B1B2B3B4B5B6B7B8B9BABBBCBDBEBF7D
:102BE000B0B1B2B3B4B5B6B7B8B9BABBBCBDBEBF6D
:102BF000B0B1B2B3B4B5B6B7B8B9BABBBCBDBEBF5D
:102C0000B0B1B2B3B4B5B6B7B8B9BABBBCBDBEBF4C
:102C1000B0B1B2B3B4B5B6B7B8B9BABBBCBDBEBF3C
:102C2000B0B1B2B3B4B5B6B7B8B9BABBBCBDBEBF2C
:102C3000B0B1B2B3B4B5B6B7B8B9BABBBCBDBEBF1C
:102C4000B0B1B2B3B4B5B6B7B8B9BABBBCBDBEBF0C
:102C5000B0B1B2B3B4B5B6B7B8B9BABBBCBDBEBFFC
:102C6000B0B1B2B3B4B5B6B7B8B9BABBBCBDBEBFEC
:102C7000B0B1B2B3B4B5B6B7B8B9BABBBCBDBEBFDC
:102C8000B0B1B2B3B4B5B6B7B8B9BABBBCBDBEBFCC
:102C9000B0B1B2B3B4B5B6B7B8B9BABBBCBDBEBFBC
:102CA000B0B1B2B3B4B5B6B7B8B9BABBBCBDBEBFAC
:102CB000B0B1B2B3B4B5B6B7B8B9BABBBCBDBEBF9C
:102CC000B0B1B2B3B4B5B6B7B8B9BABBBCBDBEBF8C
:102CD000B0B1B2B3B4B5B6B7B8B9BABBBCBDBEBF7C
:102CE000B0B1B2B3B4B5B6B7B8B9BABBBCBDBEBF6C
:102CF000B0B1B2B3B4B5B6B7B8B9BABBBCBDBEBF5C
:102D0000B0B1B2B3B4B5B6B7B8B9BABBBCBDBEBF4B
:102D1000B0B1B2B3B4B5B6B7B8B9BABBBCBDBEBF3B
:102D2000B0B1B2B3B4B5B6B7B8B9BABBBCBDBEBF2B
:102D3000B0B1B2B3B4B5B6B7B8B9BABBBCBDBEBF1B
:102D4000B0B1B2B3B4B5B6B7B8B9BABBBCBDBEBF0B
:102D5000B0B1B2B3B4B5B6B7B8B9BABBBCBDBEBFFB
:102D6000B0B1B2B3B4B5B6B7B8B9BABBBCBDBEBFEB
:102D7000B0B1B2B3B4B5B6B7B8B9BABBBCBDBEBFDB
:102D8000B0B1B2B3B4B5B6B7B8B9BABBBCBDBEBFCB
:102D9000B0B1B2B3B4B5B6B7B8B9BABBBCBDBEBFBB
:102DA000B0B1B2B3B4B5B6B7B8B9BABBBCBDBEBFAB
:102DB000B0B1B2B3B4B5B6B7B8B9BABBBCBDBEBF9B
:102DC000B0B1B2B3B4B5B6B7B8B9BABBBCBDBEBF8B
:102DD000B0B1B2B3B4B5B6B7B8B9BABBBCBDBEBF7B
:102DE000B0B1B2B3B4B5B6B7B8B9BABBBCBDBEBF6B
:102DF000B0B1B2B3B4B5B6B7B8B9BABBBCBDBEBF5B
:102E0000B0B1B2B3B4B5B6B7B8B9BABBBCBDBEBF4A
:102E1000B0B1B2B3B4B5B6B7B8B9BABBBCBDBEBF3A
:102E2000B0B1B2B3B4B5B6B7B8B9BABBBCBDBEBF2A
:102E3000B0B1B2B3B4B5B6B7B8B9BABBBCBDBEBF1A
:102E4000B0B1B2B3B4B5B6B7B8B9BABBBCBDBEBF0A
:102E5000B0B1B2B3B4B5B6B7B8B9BABBBCBDBEBFFA
:102E6000B0B1B2B3B4B5B6B7B8B9BABBBCBDBEBFEA
:102E7000B0B1B2B3B4B5B6B7B8B9BABBBCBDBEBFDA
:102E8000B0B1B2B3B4B5B6B7B8B9BABBBCBDBEBFCA
:102E9000B0B1B2B3B4B5B6B7B8B9BABBBCBDBEBFBA
:102EA000B0B1B2B3B4B5B6B7B8B9BABBBCBDBEBFAA
:102EB000B0B1B2B3B4B5B6B7B8B9BABBBCBDBEBF9A
:102EC000B0B1B2B3B4B5B6B7B8B9BABBBCBDBEBF8A
:102ED000B0B1B2B3B4B5B6B7B8B9BABBBCBDBEBF7A
:102EE000B0B1B2B3B4B5B6B7B8B9BABBBCBDBEBF6A
:102EF000B0B1B2B3B4B5B6B7B8B9BABBBCBDBEBF5A
:102F0000B0B1B2B3B4B5B6B7B8B9BABBBCBDBEBF49
:102F1000B0B1B2B3B4B5B6B7B8B9BABBBCBDBEBF39
:102F2000B0B1B2B3B4B5B6B7B8B9BABBBCBDBEBF29
:102F3000B0B1B2B3B4B5B6B7B8B9BABBBCBDBEBF19
:102F4000B0B1B2B3B4B5B6B7B8B9BABBBCBDBEBF09
:102F5000B0B1B2B3B4B5B6B7B8B9BABBBCBDBEBFF9
:102F6000B0B1B2B3B4B5B6B7B8B9BABBBCBDBEBFE9
:102F7000B0B1B2B3B4B5B6B7B8B9BABBBCBDBEBFD9
:102F8000B0B1B2B3B4B5B6B7B8B9BABBBCBDBEBFC9
:102F9000B0B1B2B3B4B5B6B7B8B9BABBBCBDBEBFB9
:102FA000B0B1B2B3B4B5B6B7B8B9BABBBCBDBEBFA9
:102FB000B0B1B2B3B4B5B6B7B8B9BABBBCBDBEBF99
:102FC000B0B1B2B3B4B5B6B7B8B9BABBBCBDBEBF89
:102FD000B0B1B2B3B4B5B6B7B8B9BABBBCBDBEBF79
:102FE000B0B1B2B3B4B5B6B7B8B9BABBBCBDBEBF69
:102FF000B0B1B2B3B4B5B6B7B8B9BABBBCBDBEBF59
:10300000B0B1B2B3B4B5B6B7B8B9BABBBCBDBEBF48
:10301000B0B1B2B3B4B5B6B7B8B9BABBBCBDBEBF38
:10302000B0B1B2B3B4B5B6B7B8B9BABBBCBDBEBF28
:10303000B0B1B2B3B4B5B6B7B8B9BABBBCBDBEBF18
:10304000B0B1B2B3B4B5B6B7B8B9BABBBCBDBEBF08
:10305000B0B1B2B3B4B5B6B7B8B9BABBBCBDBEBFF8
:10306000B0B1B2B3B4B5B6B7B8B9BABBBCBDBEBFE8
:10307000B0B1B2B3B4B5B6B7B8B9BABBBCBDBEBFD8
:10308000B0B1B2B3B4B5B6B7B8B9BABBBCBDBEBFC8
:10309000B0B1B2B3B4B5B6B7B8B9BABBBCBDBEBFB8
:1030A000B0B1B2B3B4B5B6B7B8B9BABBBCBDBEBFA8
:1030B000B0B1B2B3B4B5B6B7B8B9BABBBCBDBEBF98
:1030C000B0B1B2B3B4B5B6B7B8B9BABBBCBDBEBF88
:1030D000B0B1B2B3B4B5B6B7B8B9BABBBCBDBEBF78
:1030E000B0B1B2B3B4B5B6B7B8B9BABBBCBDBEBF68
:1030F000B0B1B2B3B4B5B6B7B8B9BABBBCBDBEBF58
:10310000B0B1B2B3B4B5B6B7B8B9BABBBCBDBEBF47
:10311000B0B1B2B3B4B5B6B7B8B9BABBBCBDBEBF37
:10312000B0B1B2B3B4B5B6B7B8B9BABBBCBDBEBF27
:10313000B0B1B2B3B4B5B6B7B8B9BABBBCBDBEBF17
:10314000B0B1B2B3B4B5B6B7B8B9BABBBCBDBEBF07
:10315000B0B1B2B3B4B5B6B7B8B9BABBBCBDBEBFF7
:10316000B0B1B2B3B4B5B6B7B8B9BABBBCBDBEBFE7
:10317000B0B1B2B3B4B5B6B7B8B9BABBBCBDBEBFD7
:10318000B0B1B2B3B4B5B6B7B8B9BABBBCBDBEBFC7
:10319000B0B1B2B3B4B5B6B7B8B9BABBBCBDBEBFB7
:1031A000B0B1B2B3B4B5B6B7B8B9BABBBCBDBEBFA7
:1031B000B0B1B2B3B4B5B6B7B8B9BABBBCBDBEBF97
:1031C000B0B1B2B3B4B5B6B7B8B9BABBBCBDBEBF87
:1031D000B0B1B2B3B4B5B6B7B8B9BABBBCBDBEBF77
:1031E000B0B1B2B3B4B5B6B7B8B9BABBBCBDBEBF67
:1031F000B0B1B2B3B4B5B6B7B8B9BABBBCBDBEBF57
:10320000B0B1B2B3B4B5B6B7B8B9BABBBCBDBEBF46
:10321000B0B1B2B3B4B5B6B7B8B9BABBBCBDBEBF36
:10322000B0B1B2B3B4B5B6B7B8B9BABBBCBDBEBF26
:10323000B0B1B2B3B4B5B6B7B8B9BABBBCBDBEBF16
:10324000B0B1B2B3B4B5B6B7B8B9BABBBCBDBEBF06
:10325000B0B1B2B3B4B5B6B7B8B9BABBBCBDBEBFF6
:10326000B0B1B2B3B4B5B6B7B8B9BABBBCBDBEBFE6
:10327000B0B1B2B3B4B5B6B7B8B9BABBBCBDBEBFD6
:10328000B0B1B2B3B4B5B6B7B8B9BABBBCBDBEBFC6
:10329000B0B1B2B3B4B5B6B7B8B9BABBBCBDBEBFB6
:1032A000B0B1B2B3B4B5B6B7B8B9BABBBCBDBEBFA6
:1032B000B0B1B2B3B4B5B6B7B8B9BABBBCBDBEBF96
:1032C000B0B1B2B3B4B5B6B7B8B9BABBBCBDBEBF86
:1032D000B0B1B2B3B4B5B6B7B8B9BABBBCBDBEBF76
:1032E000B0B1B2B3B4B5B6B7B8B9BABBBCBDBEBF66
:1032F000B0B1B2B3B4B5B6B7B8B9BABBBCBDBEBF56
:10330000B0B1B2B3B4B5B6B7B8B9BABBBCBDBEBF45
:10331000B0B1B2B3B4B5B6B7B8B9BABBBCBDBEBF35
:10332000B0B1B2B3B4B5B6B7B8B9BABBBCBDBEBF25
:10333000B0B1B2B3B4B5B6B7B8B9BABBBCBDBEBF15
:10334000B0B1B2B3B4B5B6B7B8B9BABBBCBDBEBF05
:10335000B0B1B2B3B4B5B6B7B8B9BABBBCBDBEBFF5
:10336000B0B1B2B3B4B5B6B7B8B9BABBBCBDBEBFE5
:10337000B0B1B2B3B4B5B6B7B8B9BABBBCBDBEBFD5
:10338000B0B1B2B3B4B5B6B7B8B9BABBBCBDBEBFC5
:10339000B0B1B2B3B4B5B6B7B8B9BABBBCBDBEBFB5
:1033A000B0B1B2B3B4B5B6B7B8B9BABBBCBDBEBFA5
:1033B000B0B1B2B3B4B5B6B7B8B9BABBBCBDBEBF95
:1033C000B0B1B2B3B4B5B6B7B8B9BABBBCBDBEBF85
:1033D000B0B1B2B3B4B5B6B7B8B9BABBBCBDBEBF75
:1033E000B0B1B2B3B4B5B6B7B8B9BABBBCBDBEBF65
:1033F000B0B1B2B3B4B5B6B7B8B9BABBBCBDBEBF55
:10340000B0B1B2B3B4B5B6B7B8B9BABBBCBDBEBF44
:10341000B0B1B2B3B4B5B6B7B8B9BABBBCBDBEBF34
:10342000B0B1B2B3B4B5B6B7B8B9BABBBCBDBEBF24
:10343000B0B1B2B3B4B5B6B7B8B9BABBBCBDBEBF14
:10344000B0B1B2B3B4B5B6B7B8B9BABBBCBDBEBF04
:10345000B0B1B2B3B4B5B6B7B8B9BABBBCBDBEBFF4
:10346000B0B1B2B3B4B5B6B7B8B9BABBBCBDBEBFE4
:10347000B0B1B2B3B4B5B6B7B8B9BABBBCBDBEBFD4
:10348000B0B1B2B3B4B5B6B7B8B9BABBBCBDBEBFC4
:10349000B0B1B2B3B4B5B6B7B8B9BABBBCBDBEBFB4
:1034A000B0B1B2B3B4B5B6B7B8B9BABBBCBDBEBFA4
:1034B000B0B1B2B3B4B5B6B7B8B9BABBBCBDBEBF94
:1034C000B0B1B2B3B4B5B6B7B8B9BABBBCBDBEBF84
:1034D000B0B1B2B3B4B5B6B7B8B9BABBBCBDBEBF74
:1034E000B0B1B2B3B4B5B6B7B8B9BABBBCBDBEBF64
:1034F000B0B1B2B3B4B5B6B7B8B9BABBBCBDBEBF54
:10350000B0B1B2B3B4B5B6B7B8B9BABBBCBDBEBF43
:10351000B0B1B2B3B4B5B6B7B8B9BABBBCBDBEBF33
:10352000B0B1B2B3B4B5B6B7B8B9BABBBCBDBEBF23
:10353000B0B1B2B3B4B5B6B7B8B9BABBBCBDBEBF13
:10354000B0B1B2B3B4B5B6B7B8B9BABBBCBDBEBF03
:10355000B0B1B2B3B4B5B6B7B8B9BABBBCBDBEBFF3
:10356000B0B1B2B3B4B5B6B7B8B9BABBBCBDBEBFE3
:10357000B0B1B2B3B4B5B6B7B8B9BABBBCBDBEBFD3
:10358000B0B1B2B3B4B5B6B7B8B9BABBBCBDBEBFC3
:10359000B0B1B2B3B4B5B6B7B8B9BABBBCBDBEBFB3
:1035A000B0B1B2B3B4B5B6B7B8B9BABBBCBDBEBFA3
:1035B000B0B1B2B3B4B5B6B7B8B9BABBBCBDBEBF93
:1035C000B0B1B2B3B4B5B6B7B8B9BABBBCBDBEBF83
:1035D000B0B1B2B3B4B5B6B7B8B9BABBBCBDBEBF73
:1035E000B0B1B2B3B4B5B6B7B8B9BABBBCBDBEBF63
:1035F000B0B1B2B3B4B5B6B7B8B9BABBBCBDBEBF53
:10360000B0B1B2B3B4B5B6B7B8B9BABBBCBDBEBF42
:10361000B0B1B2B3B4B5B6B7B8B9BABBBCBDBEBF32
:10362000B0B1B2B3B4B5B6B7B8B9BABBBCBDBEBF22
:10363000B0B1B2B3B4B5B6B7B8B9BABBBCBDBEBF12
:10364000B0B1B2B3B4B5B6B7B8B9BABBBCBDBEBF02
:10365000B0B1B2B3B4B5B6B7B8B9BABBBCBDBEBFF2
:10366000B0B1B2B3B4B5B6B7B8B9BABBBCBDBEBFE2
:10367000B0B1B2B3B4B5B6B7B8B9BABBBCBDBEBFD2
:10368000B0B1B2B3B4B5B6B7B8B9BABBBCBDBEBFC2
:10369000B0B1B2B3B4B5B6B7B8B9BABBBCBDBEBFB2
:1036A000B0B1B2B3B4B5B6B7B8B9BABBBCBDBEBFA2
:1036B000B0B1B2B3B4B5B6B7B8B9BABBBCBDBEBF92
:1036C000B0B1B2B3B4B5B6B7B8B9BABBBCBDBEBF82
:1036D000B0B1B2B3B4B5B6B7B8B9BABBBCBDBEBF72
:1036E000B0B1B2B3B4B5B6B7B8B9BABBBCBDBEBF62
:1036F000B0B1B2B3B4B5B6B7B8B9BABBBCBDBEBF52
:10370000B0B1B2B3B4B5B6B7B8B9BABBBCBDBEBF41
:10371000B0B1B2B3B4B5B6B7B8B9BABBBCBDBEBF31
:10372000B0B1B2B3B4B5B6B7B8B9BABBBCBDBEBF21
:10373000B0B1B2B3B4B5B6B7B8B9BABBBCBDBEBF11
:10374000B0B1B2B3B4B5B6B7B8B9BABBBCBDBEBF01
:10375000B0B1B2B3B4B5B6B7B8B9BABBBCBDBEBFF1
:10376000B0B1B2B3B4B5B6B7B8B9BABBBCBDBEBFE1
:10377000B0B1B2B3B4B5B6B7B8B9BABBBCBDBEBFD1
:10378000B0B1B2B3B4B5B6B7B8B9BABBBCBDBEBFC1
:10379000B0B1B2B3B4B5B6B7B8B9BABBBCBDBEBFB1
:1037A000B0B1B2B3B4B5B6B7B8B9BABBBCBDBEBFA1
:1037B000B0B1B2B3B4B5B6B7B8B9BABBBCBDBEBF91
:1037C000B0B1B2B3B4B5B6B7B8B9BABBBCBDBEBF81
:1037D000B0B1B2B3B4B5B6B7B8B9BABBBCBDBEBF71
:1037E000B0B1B2B3B4B5B6B7B8B9BABBBCBDBEBF61
:1037F000B0B1B2B3B4B5B6B7B8B9BABBBCBDBEBF51
:10380000B0B1B2B3B4B5B6B7B8B9BABBBCBDBEBF40
:10381000B0B1B2B3B4B5B6B7B8B9BABBBCBDBEBF30
:10382000B0B1B2B3B4B5B6B7B8B9BABBBCBDBEBF20
:10383000B0B1B2B3B4B5B6B7B8B9BABBBCBDBEBF10
:10384000B0B1B2B3B4B5B6B7B8B9BABBBCBDBEBF00
:10385000B0B1B2B3B4B5B6B7B8B9BABBBCBDBEBFF0
:10386000B0B1B2B3B4B5B6B7B8B9BABBBCBDBEBFE0
:10387000B0B1B2B3B4B5B6B7B8B9BABBBCBDBEBFD0
:10388000B0B1B2B3B4B5B6B7B8B9BABBBCBDBEBFC0
:10389000B0B1B2B3B4B5B6B7B8B9BABBBCBDBEBFB0
:1038A000B0B1B2B3B4B5B6B7B8B9BABBBCBDBEBFA0
:1038B000B0B1B2B3B4B5B6B7B8B9BABBBCBDBEBF90
:1038C000B0B1B2B3B4B5B6B7B8B9BABBBCBDBEBF80
:1038D000B0B1B2B3B4B5B6B7B8B9BABBBCBDBEBF70
:1038E000B0B1B2B3B4B5B6B7B8B9BABBBCBDBEBF60
:1038F000B0B1B2B3B4B5B6B7B8B9BABBBCBDBEBF50
:10390000B0B1B2B3B4B5B6B7B8B9BABBBCBDBEBF3F
:10391000B0B1B2B3B4B5B6B7B8B9BABBBCBDBEBF2F
:10392000B0B1B2B3B4B5B6B7B8B9BABBBCBDBEBF1F
:10393000B0B1B2B3B4B5B6B7B8B9BABBBCBDBEBF0F
:10394000B0B1B2B3B4B5B6B7B8B9BABBBCBDBEBFFF
:10395000B0B1B2B3B4B5B6B7B8B9BABBBCBDBEBFEF
:10396000B0B1B2B3B4B5B6B7B8B9BABBBCBDBEBFDF
:10397000B0B1B2B3B4B5B6B7B8B9BABBBCBDBEBFCF
:10398000B0B1B2B3B4B5B6B7B8B9BABBBCBDBEBFBF
:10399000B0B1B2B3B4B5B6B7B8B9BABBBCBDBEBFAF
:1039A000B0B1B2B3B4B5B6B7B8B9BABBBCBDBEBF9F
:1039B000B0B1B2B3B4B5B6B7B8B9BABBBCBDBEBF8F
:1039C000B0B1B2B3B4B5B6B7B8B9BABBBCBDBEBF7F
:1039D000B0B1B2B3B4B5B6B7B8B9BABBBCBDBEBF6F
:1039E000B0B1B2B3B4B5B6B7B8B9BABBBCBDBEBF5F
:1039F000B0B1B2B3B4B5B6B7B8B9BABBBCBDBEBF4F
:103A0000B0B1B2B3B4B5B6B7B8B9BABBBCBDBEBF3E
:103A1000B0B1B2B3B4B5B6B7B8B9BABBBCBDBEBF2E
:103A2000B0B1B2B3B4B5B6B7B8B9BABBBCBDBEBF1E
:103A3000B0B1B2B3B4B5B6B7B8B9BABBBCBDBEBF0E
:103A4000B0B1B2B3B4B5B6B7B8B9BABBBCBDBEBFFE
:103A5000B0B1B2B3B4B5B6B7B8B9BABBBCBDBEBFEE
:103A6000B0B1B2B3B4B5B6B7B8B9BABBBCBDBEBFDE
:103A7000B0B1B2B3B4B5B6B7B8B9BABBBCBDBEBFCE
:103A8000B0B1B2B3B4B5B6B7B8B9BABBBCBDBEBFBE
:103A9000B0B1B2B3B4B5B6B7B8B9BABBBCBDBEBFAE
:103AA000B0B1B2B3B4B5B6B7B8B9BABBBCBDBEBF9E
:103AB000B0B1B2B3B4B5B6B7B8B9BABBBCBDBEBF8E
:103AC000B0B1B2B3B4B5B6B7B8B9BABBBCBDBEBF7E
:103AD000B0B1B2B3B4B5B6B7B8B9BABBBCBDBEBF6E
:103AE000B0B1B2B3B4B5B6B7B8B9BABBBCBDBEBF5E
:103AF000B0B1B2B3B4B5B6B7B8B9BABBBCBDBEBF4E
:103B0000B0B1B2B3B4B5B6B7B8B9BABBBCBDBEBF3D
:103B1000B0B1B2B3B4B5B6B7B8B9BABBBCBDBEBF2D
:103B2000B0B1B2B3B4B5B6B7B8B9BABBBCBDBEBF1D
:103B3000B0B1B2B3B4B5B6B7B8B9BABBBCBDBEBF0D
:103B4000B0B1B2B3B4B5B6B7B8B9BABBBCBDBEBFFD
:103B5000B0B1B2B3B4B5B6B7B8B9BABBBCBDBEBFED
:103B6000B0B1B2B3B4B5B6B7B8B9BABBBCBDBEBFDD
:103B7000B0B1B2B3B4B5B6B7B8B9BABBBCBDBEBFCD
:103B8000B0B1B2B3B4B5B6B7B8B9BABBBCBDBEBFBD
:103B9000B0B1B2B3B4B5B6B7B8B9BABBBCBDBEBFAD
:103BA000B0B1B2B3B4B5B6B7B8B9BABBBCBDBEBF9D
:103BB000B0B1B2B3B4B5B6B7B8B9BABBBCBDBEBF8D
:103BC000B0B1B2B3B4B5B6B7B8B9BABBBCBDBEBF7D
:103BD000B0B1B2B3B4B5B6B7B8B9BABBBCBDBEBF6D
:103BE000B0B1B2B3B4B5B6B7B8B9BABBBCBDBEBF5D
:103BF000B0B1B2B3B4B5B6B7B8B9BABBBCBDBEBF4D
:103C0000B0B1B2B3B4B5B6B7B8B9BABBBCBDBEBF3C
:103C1000B0B1B2B3B4B5B6B7B8B9BABBBCBDBEBF2C
:103C2000B0B1B2B3B4B5B6B7B8B9BABBBCBDBEBF1C
:103C3000B0B1B2B3B4B5B6B7B8B9BABBBCBDBEBF0C
:103C4000B0B1B2B3B4B5B6B7B8B9BABBBCBDBEBFFC
:103C5000B0B1B2B3B4B5B6B7B8B9BABBBCBDBEBFEC
:103C6000B0B1B2B3B4B5B6B7B8B9BABBBCBDBEBFDC
:103C7000B0B1B2B3B4B5B6B7B8B9BABBBCBDBEBFCC
:103C8000B0B1B2B3B4B5B6B7B8B9BABBBCBDBEBFBC
:103C9000B0B1B2B3B4B5B6B7B8B9BABBBCBDBEBFAC
:103CA000B0B1B2B3B4B5B6B7B8B9BABBBCBDBEBF9C
:103CB000B0B1B2B3B4B5B6B7B8B9BABBBCBDBEBF8C
:103CC000B0B1B2B3B4B5B6B7B8B9BABBBCBDBEBF7C
:103CD000B0B1B2B3B4B5B6B7B8B9BABBBCBDBEBF6C
:103CE000B0B1B2B3B4B5B6B7B8B9BABBBCBDBEBF5C
:103CF000B0B1B2B3B4B5B6B7B8B9BABBBCBDBEBF4C
:103D0000B0B1B2B3B4B5B6B7B8B9BABBBCBDBEBF3B
:103D1000B0B1B2B3B4B5B6B7B8B9BABBBCBDBEBF2B
:103D2000B0B1B2B3B4B5B6B7B8B9BABBBCBDBEBF1B
:103D3000B0B1B2B3B4B5B6B7B8B9BABBBCBDBEBF0B
:103D4000B0B1B2B3B4B5B6B7B8B9BABBBCBDBEBFFB
:103D5000B0B1B2B3B4B5B6B7B8B9BABBBCBDBEBFEB
:103D6000B0B1B2B3B4B5B6B7B8B9BABBBCBDBEBFDB
:103D7000B0B1B2B3B4B5B6B7B8B9BABBBCBDBEBFCB
:103D8000B0B1B2B3B4B5B6B7B8B9BABBBCBDBEBFBB
:103D9000B0B1B2B3B4B5B6B7B8B9BABBBCBDBEBFAB
:103DA000B0B1B2B3B4B5B6B7B8B9BABBBCBDBEBF9B
:103DB000B0B1B2B3B4B5B6B7B8B9BABBBCBDBEBF8B
:103DC000B0B1B2B3B4B5B6B7B8B9BABBBCBDBEBF7B
:103DD000B0B1B2B3B4B5B6B7B8B9BABBBCBDBEBF6B
:103DE000B0B1B2B3B4B5B6B7B8B9BABBBCBDBEBF5B
:103DF000B0B1B2B3B4B5B6B7B8B9BABBBCBDBEBF4B
:103E0000B0B1B2B3B4B5B6B7B8B9BABBBCBDBEBF3A
:103E1000B0B1B2B3B4B5B6B7B8B9BABBBCBDBEBF2A
:103E2000B0B1B2B3B4B5B6B7B8B9BABBBCBDBEBF1A
:103E3000B0B1B2B3B4B5B6B7B8B9BABBBCBDBEBF0A
:103E4000B0B1B2B3B4B5B6B7B8B9BABBBCBDBEBFFA
:103E5000B0B1B2B3B4B5B6B7B8B9BABBBCBDBEBFEA
:103E6000B0B1B2B3B4B5B6B7B8B9BABBBCBDBEBFDA
:103E7000B0B1B2B3B4B5B6B7B8B9BABBBCBDBEBFCA
:103E8000B0B1B2B3B4B5B6B7B8B9BABBBCBDBEBFBA
:103E9000B0B1B2B3B4B5B6B7B8B9BABBBCBDBEBFAA
:103EA000B0B1B2B3B4B5B6B7B8B9BABBBCBDBEBF9A
:103EB000B0B1B2B3B4B5B6B7B8B9BABBBCBDBEBF8A
:103EC000B0B1B2B3B4B5B6B7B8B9BABBBCBDBEBF7A
:103ED000B0B1B2B3B4B5B6B7B8B9BABBBCBDBEBF6A
:103EE000B0B1B2B3B4B5B6B7B8B9BABBBCBDBEBF5A
:103EF000B0B1B2B3B4B5B6B7B8B9BABBBCBDBEBF4A
:103F0000B0B1B2B3B4B5B6B7B8B9BABBBCBDBEBF39
:103F1000B0B1B2B3B4B5B6B7B8B9BABBBCBDBEBF29
:103F2000B0B1B2B3B4B5B6B7B8B9BABBBCBDBEBF19
:103F3000B0B1B2B3B4B5B6B7B8B9BABBBCBDBEBF09
:103F4000B0B1B2B3B4B5B6B7B8B9BABBBCBDBEBFF9
:103F5000B0B1B2B3B4B5B6B7B8B9BABBBCBDBEBFE9
:103F6000B0B1B2B3B4B5B6B7B8B9BABBBCBDBEBFD9
:103F7000B0B1B2B3B4B5B6B7B8B9BABBBCBDBEBFC9
:103F8000B0B1B2B3B4B5B6B7B8B9BABBBCBDBEBFB9
:103F9000B0B1B2B3B4B5B6B7B8B9BABBBCBDBEBFA9
:103FA000B0B1B2B3B4B5B6B7B8B9BABBBCBDBEBF99
:103FB000B0B1B2B3B4B5B6B7B8B9BABBBCBDBEBF89
:103FC000B0B1B2B3B4B5B6B7B8B9BABBBCBDBEBF79
:103FD000B0B1B2B3B4B5B6B7B8B9BABBBCBDBEBF69
:103FE000B0B1B2B3B4B5B6B7B8B9BABBBCBDBEBF59
:103FF000B0B1B2B3B4B5B6B7B8B9BABBBCBDBEBF49
:10400000B0B1B2B3B4B5B6B7B8B9BABBBCBDBEBF38
:10401000B0B1B2B3B4B5B6B7B8B9BABBBCBDBEBF28
:10402000B0B1B2B3B4B5B6B7B8B9BABBBCBDBEBF18
:10403000B0B1B2B3B4B5B6B7B8B9BABBBCBDBEBF08
:10404000B0B1B2B3B4B5B6B7B8B9BABBBCBDBEBFF8
:10405000B0B1B2B3B4B5B6B7B8B9BABBBCBDBEBFE8
:10406000B0B1B2B3B4B5B6B7B8B9BABBBCBDBEBFD8
:10407000B0B1B2B3B4B5B6B7B8B9BABBBCBDBEBFC8
:10408000B0B1B2B3B4B5B6B7B8B9BABBBCBDBEBFB8
:10409000B0B1B2B3B4B5B6B7B8B9BABBBCBDBEBFA8
:1040A000B0B1B2B3B4B5B6B7B8B9BABBBCBDBEBF98
:1040B000B0B1B2B3B4B5B6B7B8B9BABBBCBDBEBF88
:1040C000B0B1B2B3B4B5B6B7B8B9BABBBCBDBEBF78
:1040D000B0B1B2B3B4B5B6B7B8B9BABBBCBDBEBF68
:1040E000B0B1B2B3B4B5B6B7B8B9BABBBCBDBEBF58
:1040F000B0B1B2B3B4B5B6B7B8B9BABBBCBDBEBF48
:10410000B0B1B2B3B4B5B6B7B8B9BABBBCBDBEBF37
:10411000B0B1B2B3B4B5B6B7B8B9BABBBCBDBEBF27
:10412000B0B1B2B3B4B5B6B7B8B9BABBBCBDBEBF17
:10413000B0B1B2B3B4B5B6B7B8B9BABBBCBDBEBF07
:10414000B0B1B2B3B4B5B6B7B8B9BABBBCBDBEBFF7
:10415000B0B1B2B3B4B5B6B7B8B9BABBBCBDBEBFE7
:10416000B0B1B2B3B4B5B6B7B8B9BABBBCBDBEBFD7
:10417000B0B1B2B3B4B5B6B7B8B9BABBBCBDBEBFC7
:10418000B0B1B2B3B4B5B6B7B8B9BABBBCBDBEBFB7
:10419000B0B1B2B3B4B5B6B7B8B9BABBBCBDBEBFA7
:1041A000B0B1B2B3B4B5B6B7B8B9BABBBCBDBEBF97
:1041B000B0B1B2B3B4B5B6B7B8B9BABBBCBDBEBF87
:1041C000B0B1B2B3B4B5B6B7B8B9BABBBCBDBEBF77
:1041D000B0B1B2B3B4B5B6B7B8B9BABBBCBDBEBF67
:1041E000B0B1B2B3B4B5B6B7B8B9BABBBCBDBEBF57
:1041F000B0B1B2B3B4B5B6B7B8B9BABBBCBDBEBF47
:10420000B0B1B2B3B4B5B6B7B8B9BABBBCBDBEBF36
:10421000B0B1B2B3B4B5B6B7B8B9BABBBCBDBEBF26
:10422000B0B1B2B3B4B5B6B7B8B9BABBBCBDBEBF16
:10423000B0B1B2B3B4B5B6B7B8B9BABBBCBDBEBF06
:10424000B0B1B2B3B4B5B6B7B8B9BABBBCBDBEBFF6
:10425000B0B1B2B3B4B5B6B7B8B9BABBBCBDBEBFE6
:10426000B0B1B2B3B4B5B6B7B8B9BABBBCBDBEBFD6
:10427000B0B1B2B3B4B5B6B7B8B9BABBBCBDBEBFC6
:10428000B0B1B2B3B4B5B6B7B8B9BABBBCBDBEBFB6
:10429000B0B1B2B3B4B5B6B7B8B9BABBBCBDBEBFA6
:1042A000B0B1B2B3B4B5B6B7B8B9BABBBCBDBEBF96
:1042B000B0B1B2B3B4B5B6B7B8B9BABBBCBDBEBF86
:1042C000B0B1B2B3B4B5B6B7B8B9BABBBCBDBEBF76
:1042D000B0B1B2B3B4B5B6B7B8B9BABBBCBDBEBF66
:1042E000B0B1B2B3B4B5B6B7B8B9BABBBCBDBEBF56
:1042F000B0B1B2B3B4B5B6B7B8B9BABBBCBDBEBF46
:10430000B0B1B2B3B4B5B6B7B8B9BABBBCBDBEBF35
:10431000B0B1B2B3B4B5B6B7B8B9BABBBCBDBEBF25
:10432000B0B1B2B3B4B5B6B7B8B9BABBBCBDBEBF15
:10433000B0B1B2B3B4B5B6B7B8B9BABBBCBDBEBF05
:10434000B0B1B2B3B4B5B6B7B8B9BABBBCBDBEBFF5
:10435000B0B1B2B3B4B5B6B7B8B9BABBBCBDBEBFE5
:10436000B0B1B2B3B4B5B6B7B8B9BABBBCBDBEBFD5
:10437000B0B1B2B3B4B5B6B7B8B9BABBBCBDBEBFC5
:10438000B0B1B2B3B4B5B6B7B8B9BABBBCBDBEBFB5
:10439000B0B1B2B3B4B5B6B7B8B9BABBBCBDBEBFA5
:1043A000B0B1B2B3B4B5B6B7B8B9BABBBCBDBEBF95
:1043B000B0B1B2B3B4B5B6B7B8B9BABBBCBDBEBF85
:1043C000B0B1B2B3B4B5B6B7B8B9BABBBCBDBEBF75
:1043D000B0B1B2B3B4B5B6B7B8B9BABBBCBDBEBF65
:1043E000B0B1B2B3B4B5B6B7B8B9BABBBCBDBEBF55
:1043F000B0B1B2B3B4B5B6B7B8B9BABBBCBDBEBF45
:10440000B0B1B2B3B4B5B6B7B8B9BABBBCBDBEBF34
:10441000B0B1B2B3B4B5B6B7B8B9BABBBCBDBEBF24
:10442000B0B1B2B3B4B5B6B7B8B9BABBBCBDBEBF14
:10443000B0B1B2B3B4B5B6B7B8B9BABBBCBDBEBF04
:10444000B0B1B2B3B4B5B6B7B8B9BABBBCBDBEBFF4
:10445000B0B1B2B3B4B5B6B7B8B9BABBBCBDBEBFE4
:10446000B0B1B2B3B4B5B6B7B8B9BABBBCBDBEBFD4
:10447000B0B1B2B3B4B5B6B7B8B9BABBBCBDBEBFC4
:10448000B0B1B2B3B4B5B6B7B8B9BABBBCBDBEBFB4
:10449000B0B1B2B3B4B5B6B7B8B9BABBBCBDBEBFA4
:1044A000B0B1B2B3B4B5B6B7B8B9BABBBCBDBEBF94
:1044B000B0B1B2B3B4B5B6B7B8B9BABBBCBDBEBF84
:1044C000B0B1B2B3B4B5B6B7B8B9BABBBCBDBEBF74
:1044D000B0B1B2B3B4B5B6B7B8B9BABBBCBDBEBF64
:1044E000B0B1B2B3B4B5B6B7B8B9BABBBCBDBEBF54
:1044F000B0B1B2B3B4B5B6B7B8B9BABBBCBDBEBF44
:10450000B0B1B2B3B4B5B6B7B8B9BABBBCBDBEBF33
:10451000B0B1B2B3B4B5B6B7B8B9BABBBCBDBEBF23
:10452000B0B1B2B3B4B5B6B7B8B9BABBBCBDBEBF13
:10453000B0B1B2B3B4B5B6B7B8B9BABBBCBDBEBF03
:10454000B0B1B2B3B4B5B6B7B8B9BABBBCBDBEBFF3
:10455000B0B1B2B3B4B5B6B7B8B9BABBBCBDBEBFE3
:10456000B0B1B2B3B4B5B6B7B8B9BABBBCBDBEBFD3
:10457000B0B1B2B3B4B5B6B7B8B9BABBBCBDBEBFC3
:10458000B0B1B2B3B4B5B6B7B8B9BABBBCBDBEBFB3
:10459000B0B1B2B3B4B5B6B7B8B9BABBBCBDBEBFA3
:1045A000B0B1B2B3B4B5B6B7B8B9BABBBCBDBEBF93
:1045B000B0B1B2B3B4B5B6B7B8B9BABBBCBDBEBF83
:1045C000B0B1B2B3B4B5B6B7B8B9BABBBCBDBEBF73
:1045D000B0B1B2B3B4B5B6B7B8B9BABBBCBDBEBF63
:1045E000B0B1B2B3B4B5B6B7B8B9BABBBCBDBEBF53
:1045F000B0B1B2B3B4B5B6B7B8B9BABBBCBDBEBF43
:10460000B0B1B2B3B4B5B6B7B8B9BABBBCBDBEBF32
:10461000B0B1B2B3B4B5B6B7B8B9BABBBCBDBEBF22
:10462000B0B1B2B3B4B5B6B7B8B9BABBBCBDBEBF12
:10463000B0B1B2B3B4B5B6B7B8B9BABBBCBDBEBF02
:10464000B0B1B2B3B4B5B6B7B8B9BABBBCBDBEBFF2
:10465000B0B1B2B3B4B5B6B7B8B9BABBBCBDBEBFE2
:10466000B0B1B2B3B4B5B6B7B8B9BABBBCBDBEBFD2
:10467000B0B1B2B3B4B5B6B7B8B9BABBBCBDBEBFC2
:10468000B0B1B2B3B4B5B6B7B8B9BABBBCBDBEBFB2
:10469000B0B1B2B3B4B5B6B7B8B9BABBBCBDBEBFA2
:1046A000B0B1B2B3B4B5B6B7B8B9BABBBCBDBEBF92
:1046B000B0B1B2B3B4B5B6B7B8B9BABBBCBDBEBF82
:1046C000B0B1B2B3B4B5B6B7B8B9BABBBCBDBEBF72
:1046D000B0B1B2B3B4B5B6B7B8B9BABBBCBDBEBF62
:1046E000B0B1B2B3B4B5B6B7B8B9BABBBCBDBEBF52
:1046F000B0B1B2B3B4B5B6B7B8B9BABBBCBDBEBF42
:10470000B0B1B2B3B4B5B6B7B8B9BABBBCBDBEBF31
:10471000B0B1B2B3B4B5B6B7B8B9BABBBCBDBEBF21
:10472000B0B1B2B3B4B5B6B7B8B9BABBBCBDBEBF11
:10473000B0B1B2B3B4B5B6B7B8B9BABBBCBDBEBF01
:10474000B0B1B2B3B4B5B6B7B8B9BABBBCBDBEBFF1
:10475000B0B1B2B3B4B5B6B7B8B9BABBBCBDBEBFE1
:10476000B0B1B2B3B4B5B6B7B8B9BABBBCBDBEBFD1
:10477000B0B1B2B3B4B5B6B7B8B9BABBBCBDBEBFC1
:10478000B0B1B2B3B4B5B6B7B8B9BABBBCBDBEBFB1
:10479000B0B1B2B3B4B5B6B7B8B9BABBBCBDBEBFA1
:1047A000B0B1B2B3B4B5B6B7B8B9BABBBCBDBEBF91
:1047B000B0B1B2B3B4B5B6B7B8B9BABBBCBDBEBF81
:1047C000B0B1B2B3B4B5B6B7B8B9BABBBCBDBEBF71
:1047D000B0B1B2B3B4B5B6B7B8B9BABBBCBDBEBF61
:1047E000B0B1B2B3B4B5B6B7B8B9BABBBCBDBEBF51
:1047F000B0B1B2B3B4B5B6B7B8B9BABBBCBDBEBF41
:10480000B0B1B2B3B4B5B6B7B8B9BABBBCBDBEBF30
:10481000B0B1B2B3B4B5B6B7B8B9BABBBCBDBEBF20
:10482000B0B1B2B3B4B5B6B7B8B9BABBBCBDBEBF10
:10483000B0B1B2B3B4B5B6B7B8B9BABBBCBDBEBF00
:10484000B0B1B2B3B4B5B6B7B8B9BABBBCBDBEBFF0
:10485000B0B1B2B3B4B5B6B7B8B9BABBBCBDBEBFE0
:10486000B0B1B2B3B4B5B6B7B8B9BABBBCBDBEBFD0
:10487000B0B1B2B3B4B5B6B7B8B9BABBBCBDBEBFC0
:10488000B0B1B2B3B4B5B6B7B8B9BABBBCBDBEBFB0
:10489000B0B1B2B3B4B5B6B7B8B9BABBBCBDBEBFA0
:1048A000B0B1B2B3B4B5B6B7B8B9BABBBCBDBEBF90
:1048B000B0B1B2B3B4B5B6B7B8B9BABBBCBDBEBF80
:1048C000B0B1B2B3B4B5B6B7B8B9BABBBCBDBEBF70
:1048D000B0B1B2B3B4B5B6B7B8B9BABBBCBDBEBF60
:1048E000B0B1B2B3B4B5B6B7B8B9BABBBCBDBEBF50
:1048F000B0B1B2B3B4B5B6B7B8B9BABBBCBDBEBF40
:10490000B0B1B2B3B4B5B6B7B8B9BABBBCBDBEBF2F
:10491000B0B1B2B3B4B5B6B7B8B9BABBBCBDBEBF1F
:10492000B0B1B2B3B4B5B6B7B8B9BABBBCBDBEBF0F
:10493000B0B1B2B3B4B5B6B7B8B9BABBBCBDBEBFFF
:10494000B0B1B2B3B4B5B6B7B8B9BABBBCBDBEBFEF
:10495000B0B1B2B3B4B5B6B7B8B9BABBBCBDBEBFDF
:10496000B0B1B2B3B4B5B6B7B8B9BABBBCBDBEBFCF
:10497000B0B1B2B3B4B5B6B7B8B9BABBBCBDBEBFBF
:10498000B0B1B2B3B4B5B6B7B8B9BABBBCBDBEBFAF
:10499000B0B1B2B3B4B5B6B7B8B9BABBBCBDBEBF9F
:1049A000B0B1B2B3B4B5B6B7B8B9BABBBCBDBEBF8F
:1049B000B0B1B2B3B4B5B6B7B8B9BABBBCBDBEBF7F
:1049C000B0B1B2B3B4B5B6B7B8B9BABBBCBDBEBF6F
:1049D000B0B1B2B3B4B5B6B7B8B9BABBBCBDBEBF5F
:1049E000B0B1B2B3B4B5B6B7B8B9BABBBCBDBEBF4F
:1049F000B0B1B2B3B4B5B6B7B8B9BABBBCBDBEBF3F
:104A0000B0B1B2B3B4B5B6B7B8B9BABBBCBDBEBF2E
:104A1000B0B1B2B3B4B5B6B7B8B9BABBBCBDBEBF1E
:104A2000B0B1B2B3B4B5B6B7B8B9BABBBCBDBEBF0E
:104A3000B0B1B2B3B4B5B6B7B8B9BABBBCBDBEBFFE
:104A4000B0B1B2B3B4B5B6B7B8B9BABBBCBDBEBFEE
:104A5000B0B1B2B3B4B5B6B7B8B9BABBBCBDBEBFDE
:104A6000B0B1B2B3B4B5B6B7B8B9BABBBCBDBEBFCE
:104A7000B0B1B2B3B4B5B6B7B8B9BABBBCBDBEBFBE
:104A8000B0B1B2B3B4B5B6B7B8B9BABBBCBDBEBFAE
:104A9000B0B1B2B3B4B5B6B7B8B9BABBBCBDBEBF9E
:104AA000B0B1B2B3B4B5B6B7B8B9BABBBCBDBEBF8E
:104AB000B0B1B2B3B4B5B6B7B8B9BABBBCBDBEBF7E
:104AC000B0B1B2B3B4B5B6B7B8B9BABBBCBDBEBF6E
:104AD000B0B1B2B3B4B5B6B7B8B9BABBBCBDBEBF5E
:104AE000B0B1B2B3B4B5B6B7B8B9BABBBCBDBEBF4E
:104AF000B0B1B2B3B4B5B6B7B8B9BABBBCBDBEBF3E
:104B0000B0B1B2B3B4B5B6B7B8B9BABBBCBDBEBF2D
:104B1000B0B1B2B3B4B5B6B7B8B9BABBBCBDBEBF1D
:104B2000B0B1B2B3B4B5B6B7B8B9BABBBCBDBEBF0D
:104B3000B0B1B2B3B4B5B6B7B8B9BABBBCBDBEBFFD
:104B4000B0B1B2B3B4B5B6B7B8B9BABBBCBDBEBFED
:104B5000B0B1B2B3B4B5B6B7B8B9BABBBCBDBEBFDD
:104B6000B0B1B2B3B4B5B6B7B8B9BABBBCBDBEBFCD
:104B7000B0B1B2B3B4B5B6B7B8B9BABBBCBDBEBFBD
:104B8000B0B1B2B3B4B5B6B7B8B9BABBBCBDBEBFAD
:104B9000B0B1B2B3B4B5B6B7B8B9BABBBCBDBEBF9D
:104BA000B0B1B2B3B4B5B6B7B8B9BABBBCBDBEBF8D
:104BB000B0B1B2B3B4B5B6B7B8B9BABBBCBDBEBF7D
:104BC000B0B1B2B3B4B5B6B7B8B9BABBBCBDBEBF6D
:104BD000B0B1B2B3B4B5B6B7B8B9BABBBCBDBEBF5D
:104BE000B0B1B2B3B4B5B6B7B8B9BABBBCBDBEBF4D
:104BF000B0B1B2B3B4B5B6B7B8B9BABBBCBDBEBF3D
:104C0000B0B1B2B3B4B5B6B7B8B9BABBBCBDBEBF2C
:104C1000B0B1B2B3B4B5B6B7B8B9BABBBCBDBEBF1C
:104C2000B0B1B2B3B4B5B6B7B8B9BABBBCBDBEBF0C
:104C3000B0B1B2B3B4B5B6B7B8B9BABBBCBDBEBFFC
:104C4000B0B1B2B3B4B5B6B7B8B9BABBBCBDBEBFEC
:104C5000B0B1B2B3B4B5B6B7B8B9BABBBCBDBEBFDC
:104C6000B0B1B2B3B4B5B6B7B8B9BABBBCBDBEBFCC
:104C7000B0B1B2B3B4B5B6B7B8B9BABBBCBDBEBFBC
:104C8000B0B1B2B3B4B5B6B7B8B9BABBBCBDBEBFAC
:104C9000B0B1B2B3B4B5B6B7B8B9BABBBCBDBEBF9C
:104CA000B0B1B2B3B4B5B6B7B8B9BABBBCBDBEBF8C
:104CB000B0B1B2B3B4B5B6B7B8B9BABBBCBDBEBF7C
:104CC000B0B1B2B3B4B5B6B7B8B9BABBBCBDBEBF6C
:104CD000B0B1B2B3B4B5B6B7B8B9BABBBCBDBEBF5C
:104CE000B0B1B2B3B4B5B6B7B8B9BABBBCBDBEBF4C
:104CF000B0B1B2B3B4B5B6B7B8B9BABBBCBDBEBF3C
:104D0000B0B1B2B3B4B5B6B7B8B9BABBBCBDBEBF2B
:104D1000B0B1B2B3B4B5B6B7B8B9BABBBCBDBEBF1B
:104D2000B0B1B2B3B4B5B6B7B8B9BABBBCBDBEBF0B
:104D3000B0B1B2B3B4B5B6B7B8B9BABBBCBDBEBFFB
:104D4000B0B1B2B3B4B5B6B7B8B9BABBBCBDBEBFEB
:104D5000B0B1B2B3B4B5B6B7B8B9BABBBCBDBEBFDB
:104D6000B0B1B2B3B4B5B6B7B8B9BABBBCBDBEBFCB
:104D7000B0B1B2B3B4B5B6B7B8B9BABBBCBDBEBFBB
:104D8000B0B1B2B3B4B5B6B7B8B9BABBBCBDBEBFAB
:104D9000B0B1B2B3B4B5B6B7B8B9BABBBCBDBEBF9B
:104DA000B0B1B2B3B4B5B6B7B8B9BABBBCBDBEBF8B
:104DB000B0B1B2B3B4B5B6B7B8B9BABBBCBDBEBF7B
:104DC000B0B1B2B3B4B5B6B7B8B9BABBBCBDBEBF6B
:104DD000B0B1B2B3B4B5B6B7B8B9BABBBCBDBEBF5B
:104DE000B0B1B2B3B4B5B6B7B8B9BABBBCBDBEBF4B
:104DF000B0B1B2B3B4B5B6B7B8B9BABBBCBDBEBF3B
:104E0000B0B1B2B3B4B5B6B7B8B9BABBBCBDBEBF2A
:104E1000B0B1B2B3B4B5B6B7B8B9BABBBCBDBEBF1A
:104E2000B0B1B2B3B4B5B6B7B8B9BABBBCBDBEBF0A
:104E3000B0B1B2B3B4B5B6B7B8B9BABBBCBDBEBFFA
:104E4000B0B1B2B3B4B5B6B7B8B9BABBBCBDBEBFEA
:104E5000B0B1B2B3B4B5B6B7B8B9BABBBCBDBEBFDA
:104E6000B0B1B2B3B4B5B6B7B8B9BABBBCBDBEBFCA
:104E7000B0B1B2B3B4B5B6B7B8B9BABBBCBDBEBFBA
:104E8000B0B1B2B3B4B5B6B7B8B9BABBBCBDBEBFAA
:104E9000B0B1B2B3B4B5B6B7B8B9BABBBCBDBEBF9A
:104EA000B0B1B2B3B4B5B6B7B8B9BABBBCBDBEBF8A
:104EB000B0B1B2B3B4B5B6B7B8B9BABBBCBDBEBF7A
:104EC000B0B1B2B3B4B5B6B7B8B9BABBBCBDBEBF6A
:104ED000B0B1B2B3B4B5B6B7B8B9BABBBCBDBEBF5A
:104EE000B0B1B2B3B4B5B6B7B8B9BABBBCBDBEBF4A
:104EF000B0B1B2B3B4B5B6B7B8B9BABBBCBDBEBF3A
:104F0000B0B1B2B3B4B5B6B7B8B9BABBBCBDBEBF29
:104F1000B0B1B2B3B4B5B6B7B8B9BABBBCBDBEBF19
:104F2000B0B1B2B3B4B5B6B7B8B9BABBBCBDBEBF09
:104F3000B0B1B2B3B4B5B6B7B8B9BABBBCBDBEBFF9
:104F4000B0B1B2B3B4B5B6B7B8B9BABBBCBDBEBFE9
:104F5000B0B1B2B3B4B5B6B7B8B9BABBBCBDBEBFD9
:104F6000B0B1B2B3B4B5B6B7B8B9BABBBCBDBEBFC9
:104F7000B0B1B2B3B4B5B6B7B8B9BABBBCBDBEBFB9
:104F8000B0B1B2B3B4B5B6B7B8B9BABBBCBDBEBFA9
:104F9000B0B1B2B3B4B5B6B7B8B9BABBBCBDBEBF99
:104FA000B0B1B2B3B4B5B6B7B8B9BABBBCBDBEBF89
:104FB000B0B1B2B3B4B5B6B7B8B9BABBBCBDBEBF79
:104FC000B0B1B2B3B4B5B6B7B8B9BABBBCBDBEBF69
:104FD000B0B1B2B3B4B5B6B7B8B9BABBBCBDBEBF59
:104FE000B0B1B2B3B4B5B6B7B8B9BABBBCBDBEBF49
:104FF000B0B1B2B3B4B5B6B7B8B9BABBBCBDBEBF39
:10500000B0B1B2B3B4B5B6B7B8B9BABBBCBDBEBF28
:10501000B0B1B2B3B4B5B6B7B8B9BABBBCBDBEBF18
:10502000B0B1B2B3B4B5B6B7B8B9BABBBCBDBEBF08
:10503000B0B1B2B3B4B5B6B7B8B9BABBBCBDBEBFF8
:10504000B0B1B2B3B4B5B6B7B8B9BABBBCBDBEBFE8
:10505000B0B1B2B3B4B5B6B7B8B9BABBBCBDBEBFD8
:10506000B0B1B2B3B4B5B6B7B8B9BABBBCBDBEBFC8
:10507000B0B1B2B3B4B5B6B7B8B9BABBBCBDBEBFB8
:10508000B0B1B2B3B4B5B6B7B8B9BABBBCBDBEBFA8
:10509000B0B1B2B3B4B5B6B7B8B9BABBBCBDBEBF98
:1050A000B0B1B2B3B4B5B6B7B8B9BABBBCBDBEBF88
:1050B000B0B1B2B3B4B5B6B7B8B9BABBBCBDBEBF78
:1050C000B0B1B2B3B4B5B6B7B8B9BABBBCBDBEBF68
:1050D000B0B1B2B3B4B5B6B7B8B9BABBBCBDBEBF58
:1050E000B0B1B2B3B4B5B6B7B8B9BABBBCBDBEBF48
:1050F000B0B1B2B3B4B5B6B7B8B9BABBBCBDBEBF38
:10510000B0B1B2B3B4B5B6B7B8B9BABBBCBDBEBF27
:10511000B0B1B2B3B4B5B6B7B8B9BABBBCBDBEBF17
:10512000B0B1B2B3B4B5B6B7B8B9BABBBCBDBEBF07
:10513000B0B1B2B3B4B5B6B7B8B9BABBBCBDBEBFF7
:10514000B0B1B2B3B4B5B6B7B8B9BABBBCBDBEBFE7
:10515000B0B1B2B3B4B5B6B7B8B9BABBBCBDBEBFD7
:10516000B0B1B2B3B4B5B6B7B8B9BABBBCBDBEBFC7
:10517000B0B1B2B3B4B5B6B7B8B9BABBBCBDBEBFB7
:10518000B0B1B2B3B4B5B6B7B8B9BABBBCBDBEBFA7
:10519000B0B1B2B3B4B5B6B7B8B9BABBBCBDBEBF97
:1051A000B0B1B2B3B4B5B6B7B8B9BABBBCBDBEBF87
:1051B000B0B1B2B3B4B5B6B7B8B9BABBBCBDBEBF77
:1051C000B0B1B2B3B4B5B6B7B8B9BABBBCBDBEBF67
:1051D000B0B1B2B3B4B5B6B7B8B9BABBBCBDBEBF57
:1051E000B0B1B2B3B4B5B6B7B8B9BABBBCBDBEBF47
:1051F000B0B1B2B3B4B5B6B7B8B9BABBBCBDBEBF37
:10520000B0B1B2B3B4B5B6B7B8B9BABBBCBDBEBF26
:10521000B0B1B2B3B4B5B6B7B8B9BABBBCBDBEBF16
:10522000B0B1B2B3B4B5B6B7B8B9BABBBCBDBEBF06
:10523000B0B1B2B3B4B5B6B7B8B9BABBBCBDBEBFF6
:10524000B0B1B2B3B4B5B6B7B8B9BABBBCBDBEBFE6
:10525000B0B1B2B3B4B5B6B7B8B9BABBBCBDBEBFD6
:10526000B0B1B2B3B4B5B6B7B8B9BABBBCBDBEBFC6
:10527000B0B1B2B3B4B5B6B7B8B9BABBBCBDBEBFB6
:10528000B0B1B2B3B4B5B6B7B8B9BABBBCBDBEBFA6
:10529000B0B1B2B3B4B5B6B7B8B9BABBBCBDBEBF96
:1052A000B0B1B2B3B4B5B6B7B8B9BABBBCBDBEBF86
:1052B000B0B1B2B3B4B5B6B7B8B9BABBBCBDBEBF76
:1052C000B0B1B2B3B4B5B6B7B8B9BABBBCBDBEBF66
:1052D000B0B1B2B3B4B5B6B7B8B9BABBBCBDBEBF56
:1052E000B0B1B2B3B4B5B6B7B8B9BABBBCBDBEBF46
:1052F000B0B1B2B3B4B5B6B7B8B9BABBBCBDBEBF36
:10530000B0B1B2B3B4B5B6B7B8B9BABBBCBDBEBF25
:10531000B0B1B2B3B4B5B6B7B8B9BABBBCBDBEBF15
:10532000B0B1B2B3B4B5B6B7B8B9BABBBCBDBEBF05
:10533000B0B1B2B3B4B5B6B7B8B9BABBBCBDBEBFF5
:10534000B0B1B2B3B4B5B6B7B8B9BABBBCBDBEBFE5
:10535000B0B1B2B3B4B5B6B7B8B9BABBBCBDBEBFD5
:10536000B0B1B2B3B4B5B6B7B8B9BABBBCBDBEBFC5
:10537000B0B1B2B3B4B5B6B7B8B9BABBBCBDBEBFB5
:10538000B0B1B2B3B4B5B6B7B8B9BABBBCBDBEBFA5
:10539000B0B1B2B3B4B5B6B7B8B9BABBBCBDBEBF95
:1053A000B0B1B2B3B4B5B6B7B8B9BABBBCBDBEBF85
:1053B000B0B1B2B3B4B5B6B7B8B9BABBBCBDBEBF75
:1053C000B0B1B2B3B4B5B6B7B8B9BABBBCBDBEBF65
:1053D000B0B1B2B3B4B5B6B7B8B9BABBBCBDBEBF55
:1053E000B0B1B2B3B4B5B6B7B8B9BABBBCBDBEBF45
:1053F000B0B1B2B3B4B5B6B7B8B9BABBBCBDBEBF35
:10540000B0B1B2B3B4B5B6B7B8B9BABBBCBDBEBF24
:10541000B0B1B2B3B4B5B6B7B8B9BABBBCBDBEBF14
:10542000B0B1B2B3B4B5B6B7B8B9BABBBCBDBEBF04
:10543000B0B1B2B3B4B5B6B7B8B9BABBBCBDBEBFF4
:10544000B0B1B2B3B4B5B6B7B8B9BABBBCBDBEBFE4
:10545000B0B1B2B3B4B5B6B7B8B9BABBBCBDBEBFD4
:10546000B0B1B2B3B4B5B6B7B8B9BABBBCBDBEBFC4
:10547000B0B1B2B3B4B5B6B7B8B9BABBBCBDBEBFB4
:10548000B0B1B2B3B4B5B6B7B8B9BABBBCBDBEBFA4
:10549000B0B1B2B3B4B5B6B7B8B9BABBBCBDBEBF94
:1054A000B0B1B2B3B4B5B6B7B8B9BABBBCBDBEBF84
:1054B000B0B1B2B3B4B5B6B7B8B9BABBBCBDBEBF74
:1054C000B0B1B2B3B4B5B6B7B8B9BABBBCBDBEBF64
:1054D000B0B1B2B3B4B5B6B7B8B9BABBBCBDBEBF54
:1054E000B0B1B2B3B4B5B6B7B8B9BABBBCBDBEBF44
:1054F000B0B1B2B3B4B5B6B7B8B9BABBBCBDBEBF34
:10550000B0B1B2B3B4B5B6B7B8B9BABBBCBDBEBF23
:10551000B0B1B2B3B4B5B6B7B8B9BABBBCBDBEBF13
:10552000B0B1B2B3B4B5B6B7B8B9BABBBCBDBEBF03
:10553000B0B1B2B3B4B5B6B7B8B9BABBBCBDBEBFF3
:10554000B0B1B2B3B4B5B6B7B8B9BABBBCBDBEBFE3
:10555000B0B1B2B3B4B5B6B7B8B9BABBBCBDBEBFD3
:10556000B0B1B2B3B4B5B6B7B8B9BABBBCBDBEBFC3
:10557000B0B1B2B3B4B5B6B7B8B9BABBBCBDBEBFB3
:10558000B0B1B2B3B4B5B6B7B8B9BABBBCBDBEBFA3
:10559000B0B1B2B3B4B5B6B7B8B9BABBBCBDBEBF93
:1055A000B0B1B2B3B4B5B6B7B8B9BABBBCBDBEBF83
:1055B000B0B1B2B3B4B5B6B7B8B9BABBBCBDBEBF73
:1055C000B0B1B2B3B4B5B6B7B8B9BABBBCBDBEBF63
:1055D000B0B1B2B3B4B5B6B7B8B9BABBBCBDBEBF53
:1055E000B0B1B2B3B4B5B6B7B8B9BABBBCBDBEBF43
:1055F000B0B1B2B3B4B5B6B7B8B9BABBBCBDBEBF33
:10560000B0B1B2B3B4B5B6B7B8B9BABBBCBDBEBF22
:10561000B0B1B2B3B4B5B6B7B8B9BABBBCBDBEBF12
:10562000B0B1B2B3B4B5B6B7B8B9BABBBCBDBEBF02
:10563000B0B1B2B3B4B5B6B7B8B9BABBBCBDBEBFF2
:10564000B0B1B2B3B4B5B6B7B8B9BABBBCBDBEBFE2
:10565000B0B1B2B3B4B5B6B7B8B9BABBBCBDBEBFD2
:10566000B0B1B2B3B4B5B6B7B8B9BABBBCBDBEBFC2
:10567000B0B1B2B3B4B5B6B7B8B9BABBBCBDBEBFB2
:10568000B0B1B2B3B4B5B6B7B8B9BABBBCBDBEBFA2
:10569000B0B1B2B3B4B5B6B7B8B9BABBBCBDBEBF92
:1056A000B0B1B2B3B4B5B6B7B8B9BABBBCBDBEBF82
:1056B000B0B1B2B3B4B5B6B7B8B9BABBBCBDBEBF72
:1056C000B0B1B2B3B4B5B6B7B8B9BABBBCBDBEBF62
:1056D000B0B1B2B3B4B5B6B7B8B9BABBBCBDBEBF52
:1056E000B0B1B2B3B4B5B6B7B8B9BABBBCBDBEBF42
:1056F000B0B1B2B3B4B5B6B7B8B9BABBBCBDBEBF32
:10570000B0B1B2B3B4B5B6B7B8B9BABBBCBDBEBF21
:10571000B0B1B2B3B4B5B6B7B8B9BABBBCBDBEBF11
:10572000B0B1B2B3B4B5B6B7B8B9BABBBCBDBEBF01
:10573000B0B1B2B3B4B5B6B7B8B9BABBBCBDBEBFF1
:10574000B0B1B2B3B4B5B6B7B8B9BABBBCBDBEBFE1
:10575000B0B1B2B3B4B5B6B7B8B9BABBBCBDBEBFD1
:10576000B0B1B2B3B4B5B6B7B8B9BABBBCBDBEBFC1
:10577000B0B1B2B3B4B5B6B7B8B9BABBBCBDBEBFB1
:10578000B0B1B2B3B4B5B6B7B8B9BABBBCBDBEBFA1
:10579000B0B1B2B3B4B5B6B7B8B9BABBBCBDBEBF91
:1057A000B0B1B2B3B4B5B6B7B8B9BABBBCBDBEBF81
:1057B000B0B1B2B3B4B5B6B7B8B9BABBBCBDBEBF71
:1057C000B0B1B2B3B4B5B6B7B8B9BABBBCBDBEBF61
:1057D000B0B1B2B3B4B5B6B7B8B9BABBBCBDBEBF51
:1057E000B0B1B2B3B4B5B6B7B8B9BABBBCBDBEBF41
:1057F000B0B1B2B3B4B5B6B7B8B9BABBBCBDBEBF31
:10580000B0B1B2B3B4B5B6B7B8B9BABBBCBDBEBF20
:10581000B0B1B2B3B4B5B6B7B8B9BABBBCBDBEBF10
:10582000B0B1B2B3B4B5B6B7B8B9BABBBCBDBEBF00
:10583000B0B1B2B3B4B5B6B7B8B9BABBBCBDBEBFF0
:10584000B0B1B2B3B4B5B6B7B8B9BABBBCBDBEBFE0
:10585000B0B1B2B3B4B5B6B7B8B9BABBBCBDBEBFD0
:10586000B0B1B2B3B4B5B6B7B8B9BABBBCBDBEBFC0
:10587000B0B1B2B3B4B5B6B7B8B9BABBBCBDBEBFB0
:10588000B0B1B2B3B4B5B6B7B8B9BABBBCBDBEBFA0
:10589000B0B1B2B3B4B5B6B7B8B9BABBBCBDBEBF90
:1058A000B0B1B2B3B4B5B6B7B8B9BABBBCBDBEBF80
:1058B000B0B1B2B3B4B5B6B7B8B9BABBBCBDBEBF70
:1058C000B0B1B2B3B4B5B6B7B8B9BABBBCBDBEBF60
:1058D000B0B1B2B3B4B5B6B7B8B9BABBBCBDBEBF50
:1058E000B0B1B2B3B4B5B6B7B8B9BABBBCBDBEBF40
:1058F000B0B1B2B3B4B5B6B7B8B9BABBBCBDBEBF30
:10590000B0B1B2B3B4B5B6B7B8B9BABBBCBDBEBF1F
:10591000B0B1B2B3B4B5B6B7B8B9BABBBCBDBEBF0F
:10592000B0B1B2B3B4B5B6B7B8B9BABBBCBDBEBFFF
:10593000B0B1B2B3B4B5B6B7B8B9BABBBCBDBEBFEF
:10594000B0B1B2B3B4B5B6B7B8B9BABBBCBDBEBFDF
:10595000B0B1B2B3B4B5B6B7B8B9BABBBCBDBEBFCF
:10596000B0B1B2B3B4B5B6B7B8B9BABBBCBDBEBFBF
:10597000B0B1B2B3B4B5B6B7B8B9BABBBCBDBEBFAF
:10598000B0B1B2B3B4B5B6B7B8B9BABBBCBDBEBF9F
:10599000B0B1B2B3B4B5B6B7B8B9BABBBCBDBEBF8F
:1059A000B0B1B2B3B4B5B6B7B8B9BABBBCBDBEBF7F
:1059B000B0B1B2B3B4B5B6B7B8B9BABBBCBDBEBF6F
:1059C000B0B1B2B3B4B5B6B7B8B9BABBBCBDBEBF5F
:1059D000B0B1B2B3B4B5B6B7B8B9BABBBCBDBEBF4F
:1059E000B0B1B2B3B4B5B6B7B8B9BABBBCBDBEBF3F
:1059F000B0B1B2B3B4B5B6B7B8B9BABBBCBDBEBF2F
:105A0000B0B1B2B3B4B5B6B7B8B9BABBBCBDBEBF1E
:105A1000B0B1B2B3B4B5B6B7B8B9BABBBCBDBEBF0E
:105A2000B0B1B2B3B4B5B6B7B8B9BABBBCBDBEBFFE
:105A3000B0B1B2B3B4B5B6B7B8B9BABBBCBDBEBFEE
:105A4000B0B1B2B3B4B5B6B7B8B9BABBBCBDBEBFDE
:105A5000B0B1B2B3B4B5B6B7B8B9BABBBCBDBEBFCE
:105A6000B0B1B2B3B4B5B6B7B8B9BABBBCBDBEBFBE
:105A7000B0B1B2B3B4B5B6B7B8B9BABBBCBDBEBFAE
:105A8000B0B1B2B3B4B5B6B7B8B9BABBBCBDBEBF9E
:105A9000B0B1B2B3B4B5B6B7B8B9BABBBCBDBEBF8E
:105AA000B0B1B2B3B4B5B6B7B8B9BABBBCBDBEBF7E
:105AB000B0B1B2B3B4B5B6B7B8B9BABBBCBDBEBF6E
:105AC000B0B1B2B3B4B5B6B7B8B9BABBBCBDBEBF5E
:105AD000B0B1B2B3B4B5B6B7B8B9BABBBCBDBEBF4E
