S0030000FC
S1130000EEEEEEEEEEEEEEEEEEEEEEEEEEEEEEEE0C
S1130010EEEEEEEEEEEEEEEEEEEEEEEEEEEEEEEEFC
S1130020EEEEEEEEEEEEEEEEEEEEEEEEEEEEEEEEEC
S1130030EEEEEEEEEEEEEEEEEEEEEEEEEEEEEEEEDC
S1133FF0CCCCCCCCCCCCCCCCCCCCCCCC1BE75BB31D
S1134000EEEEEEEEEEEEEEEEEEEEEEEEEEEEEEEECC
S1134010EEEEEEEEEEEEEEEEEEEEEEEEEEEEEEEEBC
S1134020EEEEEEEEEEEEEEEEEEEEEEEEEEEEEEEEAC
S1134030EEEEEEEEEEEEEEEEEEEEEEEEEEEEEEEE9C
S5030500F7
S9030000FC
